:020000040800F2
:1000000000300020C943000811070008130700084A
:10001000150700081707000819070008000000006E
:100020000000000000000000000000001B070008A6
:100030001D070008000000001F0700082107000836
:10004000194400081944000819440008194400081C
:10005000194400081944000819440008194400080C
:100060001944000819440008194400082907000829
:1000700019440008194400081944000819440008EC
:1000800019440008194400081944000819440008DC
:1000900019440008194400081944000819440008CC
:1000A00019440008194400081944000819440008BC
:1000B000390700081944000800000000194400082E
:1000C0001944000800000000000000001944000866
:1000D00000000000194400081944000819440008F1
:1000E0001944000819440008000000000000000046
:1000F0000000000000000000000000000000000000
:1001000000000000000000000000000000000000EF
:100110000000000000000000194400081944000815
:1001200000000000000000000000000000000000CF
:1001300000000000000000000000000000000000BF
:100140001944000819440008000000001944000880
:10015000194400081944000819440008194400080B
:1001600019440008194400080000000000000000C5
:10017000000000000000000000000000000000007F
:08018000000000001944000812
:10018800024B0146186800F02FB800BF000000209D
:10019800024B0146186800F055B900BF0000002066
:1001A80070B5104E336805460C46B3B12146284653
:1001B80000F0F4F8431C0CD0C41C24F00304A04243
:1001C80005D0211A284600F0E9F8013001D0204670
:1001D80070BD4FF0FF34204670BD194600F0DEF8C0
:1001E8003060E3E7600000202DE9F041CD1C25F0E8
:1001F800030508350C2D38BF0C25002D82B00646A6
:1002080016DBA94214D8354F00F06AF87A68AAB10B
:10021800144603E06368224683B11C4623685B1BCF
:10022800F8D40B2B21D8A242636855D053600DE057
:100238000C233360002002B0BDE8F0812946304627
:10024800FFF7AEFF431C044619D00560304600F0A6
:100258004DF804F10B00231D20F00700C21A1CBF43
:100268001B1AA35002B0BDE8F0816119A2422560B3
:1002780014BF51607960635163684B60E6E77B683F
:1002880023B31C465B68002BFBD1226801931946F7
:10029800304604EB020800F081F8804516D1226848
:1002A800AD1A29463046FFF77BFF01300ED0226891
:1002B8007868019B2A442260426812B90CE0104613
:1002C8005268A242FBD100234360BFE70C2333608E
:1002D800304600F00BF8ADE77B60B7E76000002020
:1002E800014800F0A5B800BFB8010020014800F09F
:1002F800A7B800BFB8010020830730B547D0541E07
:10030800002A3ED0CAB2034601E0013C39D303F8C3
:10031800012B9D07F9D1032C2CD9CDB205EB05256E
:100328000F2C05EB054535D9A4F1100222F00F0C6E
:1003380003F1100EE6444FEA121C1A461560556088
:100348009560D56010327245F8D10CF1010214F0B5
:100358000C0F03EB021204F00F0C13D0ACF10403E2
:1003680023F003030433134442F8045B9A42FBD19D
:100378000CF003042CB1C9B21C4403F8011B9C42C5
:10038800FBD130BD64461346002CF4D1F9E703468F
:100398001446C0E71A46A446E0E700BF38B5074D43
:1003A8000022044608462A6001F02AFC431C00D0BB
:1003B80038BD2B68002BFBD0236038BDA40100207A
:1003C800014B1868704700BF0000002070B50F4B44
:1003D8000F4DAB42A3EB050607D0B610002455F825
:1003E800043B01349847A642F9D804F013F8094DA4
:1003F800094B5E1BAB424FEAA60606D0002455F80F
:10040800043B01349847A642F9D870BD6C440008F3
:100418006C4400086C44000870440008704700BF32
:10042800704700BF704700BF704700BF704700BFEC
:10043800704700BF0120704701207047704700BF18
:10044800704700BF002950D038B551F8043C0C1F44
:10045800002BB8BFE4180546FFF742FF274A136888
:100468002BB1A3420CD92168601883422CD0636059
:1004780028461460BDE83840FFF738BFA3420FD8BC
:100488001A465B68002BF9D111685018844217D0BE
:100498002CD3636054602846BDE83840FFF726BF78
:1004A80011685018A04214D020D8216860188342DF
:1004B800EFD118685B680844C4E900035460EAE7B0
:1004C80023680B441360E6E718685B6808442060FB
:1004D800CDE720680144501883421160DBD1D3E98D
:1004E80000040144C2E90014D5E770470C232B60CF
:1004F8002846BDE83840FFF7F9BE00BF6400002079
:1005080010B5054C237833B9044B13B10448AFF345
:1005180000800123237010BDC501002000000000E9
:100528001C44000808B5034B1BB103490348AFF34B
:10053800008008BD00000000C80100201C4400081D
:10054800094B834200D0704710B5084C236801332B
:10055800236003F043FC2368632B00D810BD03F02D
:1005680065FC00222260F9E7B8060020E0010020BF
:1005780072B6FEE700B597B0282200210CA8FFF755
:10058800BBFE00230793089309930A930B930093E8
:1005980001930293039304930593069301220C920B
:1005A8004FF480330D9310920222139214934FF458
:1005B800801315930CA800F0B3FBF8B90F23079329
:1005C80002210891002309934FF480620A920B9349
:1005D80007A800F0EDFE98B944F2810300930023C8
:1005E80002934FF4B07304934FF480530693684614
:1005F80000F0E4FF30B917B05DF804FBFFF7B8FF6F
:10060800FFF7B6FFFFF7B4FF08B500F051FBFFF79F
:10061800B1FF00F029F801F0C3FB01F015FB01F070
:100628001BFC01F083FD03F0CBFC482003F030F9FC
:1006380003F0D6F9094800F0CBF84FF48061084878
:1006480001F06CF90246074B187080214FF090407A
:1006580001F06BF9012000F04FFBEEE7B80600202F
:1006680000040048E401002030B589B00024039458
:100678000494059406940794214B5A6942F4800225
:100688005A615A6902F480020092009A5A6942F447
:1006980000325A615A6902F400320192019A5A6989
:1006A80042F480225A615B6903F480230293029B1F
:1006B8002246A0214FF0904001F037F92023039300
:1006C800012504950594069403A94FF0904001F084
:1006D80047F880230393049502230593069403A9FE
:1006E8004FF0904001F03CF84FF48063039304947A
:1006F800059503A9034801F033F809B030BD00BFE0
:100708000010024000040048FEE7FEE7FEE7FEE7AF
:10071800FEE770477047704708B500F0DBFA08BD80
:1007280008B5024801F090F908BD00BFF0010020AB
:1007380008B5024800F08AF808BD00BFB8060020D6
:1007480082B00A4B9A6942F001029A619A6902F0F2
:1007580001020092009ADA6942F08052DA61DB699C
:1007680003F080530193019B02B0704700100240D0
:1007780010B4036A046A24F001040462846924F052
:10078800F00C4CEA021223F00A030B438261036265
:100798005DF8044B704710B4036A046A24F010042F
:1007A8000462846924F4704C4CEA023223F0A003FA
:1007B80043EA0113826103625DF8044B7047836862
:1007C80023F070030B4343F0070383607047000076
:1007D80090F83D30DBB2012B2AD1022380F83D305E
:1007E8000268D36843F00103D3600368134A934255
:1007F80010D0B3F1804F0DD0A2F59432934209D0B6
:1008080002F59E32934205D01A6842F001021A603E
:100818000020704799680A4A0A40062A0AD0B2F5A9
:10082800803F09D01A6842F001021A600020704720
:10083800012070470020704700207047002C0140BD
:1008480007000100704770477047704770B504464D
:100858000368DE681D6915F0020F10D016F0020F4C
:100868000DD06FF002021A610123037703689B69B8
:1008780013F0030F64D0FFF7E6FF0023237715F08A
:10088800040F12D016F0040F0FD023686FF0040283
:100898001A610223237723689B6913F4407F55D09C
:1008A8002046FFF7D0FF0023237715F0080F12D05A
:1008B80016F0080F0FD023686FF008021A6104239E
:1008C80023772368DB6913F0030F46D02046FFF730
:1008D800BAFF0023237715F0100F12D016F0100F6F
:1008E8000FD023686FF010021A610823237723685A
:1008F800DB6913F4407F37D02046FFF7A4FF0023BD
:10090800237715F0010F02D016F0010F33D115F03F
:10091800800F02D016F0800F35D115F4807F02D0F9
:1009280016F0800F37D115F0400F02D016F0400FA7
:1009380039D115F0200F02D016F0200F3BD170BD31
:10094800FFF780FF2046FFF77FFF96E72046FFF777
:1009580079FF2046FFF778FFA5E72046FFF772FFEB
:100968002046FFF771FFB4E72046FFF76BFF2046EC
:10097800FFF76AFFC3E723686FF001021A61204698
:10098800FFF7DEFDC3E723686FF080021A61204697
:1009980000F065F9C1E723686FF480721A61204698
:1009A80000F05EF9BFE723686FF040021A61204645
:1009B800FFF74BFFBDE723686FF020021A6120465E
:1009C80000F04CF9BBE700000368264A904206D0C5
:1009D800B0F1804F03D0A2F59432904203D123F0B6
:1009E80070034A6813431F4A904212D0B0F1804FF7
:1009F8000FD0A2F5943290420BD002F59E3290426D
:100A080007D002F58062904203D002F580629042DE
:100A180003D123F44073CA68134323F080034A695F
:100A2800134303608B68C3620B6883620D4B984263
:100A38000BD003F5A053984207D003F58063984282
:100A480003D003F58063984201D10B690363012346
:100A58004361036913F0010F03D0036923F0010315
:100A680003617047002C014060B310B5044690F84C
:100A78003D3013B3022384F83D30214651F8040B6E
:100A8800FFF7A2FF012384F8483084F83E3084F849
:100A98003F3084F8403084F8413084F8423084F89C
:100AA800433084F8443084F8453084F8463084F87C
:100AB800473084F83D30002010BD80F83C3003F00A
:100AC800B5FAD7E70120704710B4846824F47F4C46
:100AD80042EA03220A4342EA0C0282605DF8044BB0
:100AE8007047000090F83C30012B76D010B50446D2
:100AF800012380F83C30022380F83D30026890687A
:100B0800374B034093600B68602B4CD029D8402B9F
:100B180054D00CD9502B22D1CA6849682068FFF7F5
:100B280027FE50212068FFF74AFE002005E0202B11
:100B38000DD009D9302B0AD00120012384F83D308B
:100B4800002384F83C3010BD0BB1102B05D1194699
:100B58002068FFF734FE0020EFE70120EDE70120D1
:100B6800EBE7B3F5805F34D0B3F5005F0CD1CB6809
:100B78004A6889682068FFF7A7FF2268936843F4EA
:100B8800804393600020D8E7702B24D1CB684A6853
:100B980089682068FFF798FF2268936843F0770315
:100BA80093600020C9E7CA6849682068FFF7F3FD29
:100BB80060212068FFF703FE0020BEE7CA68496885
:100BC8002068FFF7D5FD40212068FFF7F8FD0020D9
:100BD800B3E70020B1E70120AFE70220704700BF6C
:100BE8008800FEFF90F83C20012A33D030B4034639
:100BF800012280F83C20022280F83D2000684268EB
:100C08008468154DA84220D022F070020D682A434E
:100C180042601A68104882420AD0B2F1804F07D069
:100C2800A0F59430824203D000F59E30824204D170
:100C380024F08004896821439160012283F83D20D3
:100C4800002083F83C0030BC704722F470024D68E5
:100C58002A43D9E702207047002C014070477047AB
:100C68007047000010B504460E4B1A784FF47A739B
:100C7800B3FBF2F30C4A1068B0FBF3F000F0A2FFEC
:100C880068B90F2C01D901200AE0002221464FF053
:100C9800FF3000F079FF054B1C60002000E00120C8
:100CA80010BD00BF50000020580000205400002054
:100CB80008B5074A136843F010031360032000F0D7
:100CC80051FF0F20FFF7CEFFFFF73AFD002008BDC8
:100CD80000200240034A1168034B1B780B44136041
:100CE800704700BFE801002050000020014B186841
:100CF800704700BFE801002038B50446FFF7F6FF4B
:100D08000546B4F1FF3F02D0044B1B781C44FFF7A3
:100D1800EDFF401BA042FAD338BD00BF50000020B1
:100D2800002800F0FF8270B582B00446036813F013
:100D3800010F3BD0B44B5B6803F00C03042B1ED0AF
:100D4800B14B5B6803F00C03082B13D06368B3F551
:100D5800803F68D0002B40F0928003F1804303F578
:100D680004331A6822F480321A601A6822F4802246
:100D78001A605DE0A44B5B6813F4803FE6D04FF443
:100D8800003393FAA3F3A04B19684FF4003393FA96
:100D9800A3F3B3FA83F303F01F03012202FA03F368
:100DA8000B4203D06368002B00F0BE82236813F067
:100DB800020F00F0C480944B5B6813F00C0F00F036
:100DC8009C80914B5B6803F00C03082B00F08F802C
:100DD8002369002B00F0F080012292FAA2F3B3FA03
:100DE80083F303F1845303F584139B001A60FFF720
:100DF8007DFF0546022393FAA3F3834B1968022368
:100E080093FAA3F3B3FA83F303F01F03012202FA60
:100E180003F30B4240F0C280FFF768FF401B022833
:100E2800E8D9032089E2784A136843F480331360D1
:100E3800754AD36A23F00F03A1680B43D362636832
:100E4800002B36D0FFF752FF05464FF4003393FAD4
:100E5800A3F36D4B19684FF4003393FAA3F3B3FA75
:100E680083F303F01F03012202FA03F30B429DD11F
:100E7800FFF73CFF401B6428E7D903205DE2B3F588
:100E8800A02F09D0604B1A6822F480321A601A68C1
:100E980022F480221A60CBE703F18043A3F53C33A8
:100EA8001A6842F480221A601A6842F480321A6082
:100EB800BEE7FFF71BFF05464FF4003393FAA3F391
:100EC800514B19684FF4003393FAA3F3B3FA83F341
:100ED80003F01F03012202FA03F30B423FF466AF4B
:100EE800FFF704FF401B6428E6D9032025E2464BA0
:100EF8005B6813F4803F7FF46BAF022393FAA3F38C
:100F0800414B1968022393FAA3F3B3FA83F303F06E
:100F18001F03012202FA03F30B4203D02369934211
:100F280040F004823848036823F0F8036169F82226
:100F380092FAA2F2B2FA82F291400B43036023685C
:100F480013F0080F00F08C80A369002B60D00121FA
:100F580091FAA1F2B2FA82F22C4B13449B00196069
:100F6800FFF7C4FE0546022393FAA3F293FAA3F20D
:100F780093FAA3F2244A516A93FAA3F3B3FA83F3D8
:100F880003F01F03012202FA03F30B4268D1FFF7B3
:100F9800ADFE401B0228E6D90320CEE11A480368BB
:100FA80023F0F8036169F82292FAA2F2B2FA82F207
:100FB80091400B430360C2E7012393FAA3F3B3FA0A
:100FC80083F303F1845303F584139B0000221A6012
:100FD800FFF78CFE0546022393FAA3F30A4B196820
:100FE800022393FAA3F3B3FA83F303F01F03012256
:100FF80002FA03F30B42A2D0FFF778FE401B022847
:10100800E9D9032099E100BF001002402081901027
:10101800012292FAA2F2B2FA82F2B74B13449B0071
:1010280000221A60FFF762FE0546022393FAA3F234
:1010380093FAA3F293FAA3F2B04A516A93FAA3F38C
:10104800B3FA83F303F01F03012202FA03F30B42FE
:1010580006D0FFF74BFE401B0228E6D903206CE1BF
:10106800236813F0040F00F0A980A44BDB6913F088
:10107800805F20D1A14BDA6942F08052DA61DB69E6
:1010880003F080530193019B01259D4B1B6813F4CA
:10109800807F12D0E368012B23D073BB03F1804318
:1010A80003F504331A6A22F001021A621A6A22F05E
:1010B80004021A621AE00025E7E7914A136843F42C
:1010C80080731360FFF712FE06468D4B1B6813F4FE
:1010D800807FDFD1FFF70AFE801B6428F5D9032043
:1010E8002BE1864A136A43F001031362E368002B7D
:1010F8003CD0FFF7FBFD06462EE0052B09D07F4BC1
:101108001A6A22F001021A621A6A22F004021A62AA
:10111800ECE77A4B1A6A42F004021A621A6A42F041
:1011280001021A62E2E7022393FAA3F3734B596AA6
:10113800022393FAA3F3B3FA83F303F01F03012204
:1011480002FA03F3194238D1FFF7D0FD801B41F2B0
:101158008833984200F2EC80022393FAA3F293FAC0
:10116800A3F3002BDFD0654B196AE1E7FFF7BEFD5B
:10117800064618E0022393FAA3F3604B596A022348
:1011880093FAA3F3B3FA83F303F01F03012202FADD
:1011980003F3194211D0FFF7A9FD801B41F28833F0
:1011A800984200F2C780022393FAA3F293FAA3F3BA
:1011B800002BDFD0514B196AE1E7B5BBE369002B7F
:1011C80000F0BA804D4A526802F00C02082A00F07A
:1011D8009980022B2FD04FF0807393FAA3F3B3FAC0
:1011E80083F303F1845303F584139B0000221A60F0
:1011F800FFF77CFD04464FF0007393FAA3F33F4BCF
:1012080019684FF0007393FAA3F3B3FA83F303F06A
:101218001F03012202FA03F319426BD0FFF766FDA0
:10122800001B0228E7D9032087E0344AD36923F05A
:101238008053D361C2E74FF0807393FAA3F3B3FAF4
:1012480083F303F1845303F584139B0000221A608F
:10125800FFF74CFD05464FF0007393FAA3F3274BB5
:1012680019684FF0007393FAA3F3B3FA83F303F00A
:101278001F03012202FA03F3194206D0FFF736FDD5
:10128800401B0228E7D9032057E01C494B6823F488
:101298007413626A206A024313434B604FF08073F1
:1012A80093FAA3F3B3FA83F303F1845303F5841396
:1012B8009B0001221A60FFF719FD04464FF00073E6
:1012C80093FAA3F30D4B19684FF0007393FAA3F345
:1012D800B3FA83F303F01F03012202FA03F319425E
:1012E80006D1FFF703FD001B0228E7D9032024E0FD
:1012F800002022E0002020E0208190100010024011
:1013080000700040012B1AD0104B5B6803F4803149
:10131800226A914215D103F47013626A934212D182
:1013280000200AE001207047012006E0012004E0C7
:10133800032002E0032000E0002002B070BD01207D
:10134800FBE70120F9E70120F7E700BF00100240A2
:10135800114B5A6802F00C03042B18D0082B18D133
:10136800C2F383430D49C85C0B4BDB6A03F00F03E0
:101378000B49C95C12F4803F05D00A4BB3FBF1F36B
:1013880003FB00F07047084B03FB00F0704705486B
:1013980070470648704700BF0010024044440008E8
:1013A80034440008001BB70000093D0000127A0011
:1013B800002800F0BE8070B50D460446614B1B68DE
:1013C80003F007038B420BD25E4A136823F007032E
:1013D8000B431360136803F007038B4240F0AB80A4
:1013E800236813F0020F06D0574A536823F0F0031E
:1013F800A1680B435360236813F0010F5AD0636848
:10140800012B2DD0022B40D0022292FAA2F24E4A92
:101418001068022292FAA2F2B2FA82F202F01F02D5
:10142800012101FA02F2104200F0878046494A6819
:1014380022F0030213434B60FFF758FC0646424B69
:101448005B6803F00C036268B3EB820F32D0FFF7DE
:101458004DFC801B41F288339842F0D9032067E0A5
:101468004FF4003292FAA2F2374A10684FF4003271
:1014780092FAA2F2B2FA82F202F01F02012101FAF4
:1014880002F20242D2D1012052E04FF0007292FAE9
:10149800A2F22D4A10684FF0007292FAA2F2B2FA44
:1014A80082F202F01F02012101FA02F21042BDD1BC
:1014B80001203DE0234B1B6803F00703AB420AD928
:1014C800204A136823F007032B431360136803F0C3
:1014D8000703AB4233D1236813F0040F06D01A4A2E
:1014E800536823F4E063E1680B435360236813F007
:1014F800080F07D0144A536823F46053216943EA5C
:10150800C1035360FFF724FF0F4B5B6803F0F00340
:10151800F02292FAA2F2B2FA82F2D3400B4AD35CDA
:10152800D8400B4B18600B4B1868FFF79BFB00204B
:1015380070BD012070470120FAE70120F8E701207B
:10154800F6E700BF00200240001002405C4400089B
:101558005800002054000020014B1868704700BF55
:101568005800002008B5FFF7F7FF074B5B6803F446
:10157800E0634FF4E06292FAA2F2B2FA82F2D34048
:10158800024AD35CD84008BD001002405444000809
:1015980008B5FFF7E1FF074B5B6803F460534FF4AE
:1015A800605292FAA2F2B2FA82F2D340024AD35CB3
:1015B800D84008BD0010024054440008F0B583B07C
:1015C8000446036813F4803F44D0624BDB6913F090
:1015D800805F78D15F4BDA6942F08052DA61DB696B
:1015E80003F080530193019B01255B4B1B6813F4A7
:1015F800807F6AD0574B1B6A13F4407321D062680E
:1016080002F440729A421CD05248016A21F4407692
:101618004FF4803393FAA3F2B2FA82F24F4F3A446E
:1016280092004FF0010CC2F800C093FAA3F3B3FA8A
:1016380083F33B449B0000221A60066211F0010FFD
:1016480057D1444A136A23F4407361680B43136209
:10165800002D74D1236813F0010F06D03D4A136B97
:1016680023F00303A1680B431363236813F0200FCF
:1016780006D0384A136B23F01003E1680B43136359
:10168800236813F0800F06D0324AD36A23F4F87324
:1016980021690B43D362236813F4805F06D02D4A77
:1016A800136B23F4807361690B431363236813F48A
:1016B800804F4BD0274A136B23F48053A1690B4307
:1016C8001363002043E000258FE7234A136843F49F
:1016D80080731360FFF70AFB06461F4B1B6813F461
:1016E800807F87D1FFF702FB801B6428F5D9032090
:1016F8002DE0FFF7FBFA064617E0022393FAA3F35F
:10170800144B596A022393FAA3F3B3FA83F303F051
:101718001F03012202FA03F30B4292D1FFF7E6FA04
:10172800801B41F2883398420ED8022393FAA3F221
:1017380093FAA3F3002BE0D0064B196AE2E7D369CA
:1017480023F08053D36185E7032000E0002003B035
:10175800F0BD00BF001002400070004000819010F2
:10176800F0B583B0002362E085685E000324B440CE
:1017780025EA0405CC68B4402C438460456825EA12
:101788000C054C68C4F300149C402C4344605FE093
:10179800DD08083550F8254003F0070C4FEA8C0C9B
:1017A8004FF00F0E0EFA0CFE24EA0E0E0C6904FA26
:1017B8000CF444EA0E0440F8254060E0032400E0FD
:1017C800002404FA0EF42C430CF1020C4F4D45F89A
:1017D8002C404F4CA568D44325EA02064F6817F4FD
:1017E800801F01D042EA0506494DAE60ED6804EA63
:1017F80005064F6817F4001F01D042EA0506444D5C
:10180800EE606D6804EA05064F6817F4003F01D0E2
:1018180042EA05063E4D6E602D682C404E6816F46F
:10182800803F01D042EA0504394A146001330A684E
:1018380032FA03F468D04FF0010C0CFA03FC1CEAEE
:101848000202F3D04C6804F00304013C012C8BD94C
:101858004C6804F00304032C0CD0C4685D004FF0FE
:10186800030C0CFA05FC24EA0C0C8C68AC4044EA26
:101878000C04C4604C6804F00304022C88D004688B
:101888004FEA430E4FF0030C0CFA0EFC24EA0C0C42
:101898004C6804F0030404FA0EF444EA0C040460EF
:1018A8004C6814F4403FC1D01A4CA56945F00105B5
:1018B800A561A46904F001040194019C4FEA930C0A
:1018C8000CF10205114C54F8255003F0030E4FEAB1
:1018D8008E0E0F2404FA0EF425EA0405B0F1904F99
:1018E8003FF46EAF0C4CA0420AD004F58064A042CD
:1018F80008D004F58064A0423FF460AF052460E797
:1019080001245EE702245CE703B0F0BD000001405B
:101918000004014000100240000400480369194215
:1019280001D001207047002070470AB181617047DB
:101938008162704730B40124056CAC40C56B6C60A3
:10194800046863604368102B05D0036899600368D6
:10195800DA6030BC704703689A600368D960F8E7BA
:101968000268054B1344054AA2FB03231B099B008D
:101978000364034BC3637047F8FFFDBFCDCCCCCCE9
:101988000000024020B310B50446022380F821303D
:1019980001680A6822F47F5222F0300243688068A6
:1019A8000343E06803432069034360690343A06974
:1019B8000343E069034313430B602046FFF7D0FF5E
:1019C8000020A063012384F8213084F8200010BD92
:1019D8000120704738B5044690F82000012831D01E
:1019E800012084F8200094F82100012804D0002365
:1019F80084F82030022038BD022084F8210000201D
:101A0800A0632568286820F0010028602046FFF7B9
:101A180091FFE36A5BB12268136843F00E03136019
:101A28002268136843F0010313600020E3E722688B
:101A3800136843F00A0313602268136823F0040351
:101A48001360EDE70220D6E738B5C36B1A6804685F
:101A58002568016C04238B40134213D015F0040F42
:101A680010D0236813F0200F03D1236823F0040358
:101A78002360016CC26B04238B405360C36A03B1BB
:101A8800984738BD02238B4013421AD015F0020F35
:101A980017D0236813F0200F06D1236823F00A0318
:101AA8002360012380F82130016CC26B02238B4034
:101AB8005360002380F82030836A002BE1D09847D8
:101AC800DFE708238B401342DBD015F0080FD8D08E
:101AD800236823F00E032360026CC16B012303FA11
:101AE80002F24A60836380F82130002380F82030B6
:101AF800036B002BC5D09847C3E70000002808DB1C
:101B08000901C9B200F1604000F5614080F8001396
:101B1800704700F00F000901C9B2014B1954704712
:101B280014ED00E000B500F00700C0F1070CBCF1AF
:101B3800040F28BF4FF0040C031D062B0FD9C31E3A
:101B48004FF0FF3E0EFA0CF021EA000199400EFA20
:101B580003FE22EA0E0241EA02005DF804FB0023BC
:101B6800EEE70000074AD36823F4E0631B041B0C6C
:101B7800000200F4E060034343F0BF6343F4003322
:101B8800D360704700ED00E010B50446054BD868F7
:101B9800C0F30220FFF7C6FF01462046FFF7AEFF5D
:101BA80010BD00BF00ED00E0002807DB00F01F02B9
:101BB800400901239340024A42F82030704700BF91
:101BC80000E100E00138B0F1807F0BD24FF0E02354
:101BD8005861054AF02182F82310002098610722F5
:101BE8001A6170470120704700ED00E0034AD2F8FF
:101BF800883043F47003C2F88830704700ED00E085
:101C080010B503460C4A0D490D48006840B10C4810
:101C180000680344521A934206D8094A136010BD5B
:101C28000748084C0460F2E7FEF7CAFB0C23036080
:101C38004FF0FF30F3E700BF003000200004000041
:101C4800EC0100201007002000B58BB0002307939B
:101C580008930993019302930393049305930693BE
:101C680027484FF0A042026043608360012202616E
:101C7800427680F82030C3628262C3600321C1616A
:101C880080F83020042242610376436300F05EFB53
:101C980038BB0023079307A9194800F0FFFE18BBBB
:101CA80001230193029300230493052203920593D1
:101CB800069301A9124800F039FDC0B90223019327
:101CC800029301A90E4800F031FD98B9032301934E
:101CD800029301A90A4800F029FD70B90BB05DF81C
:101CE80004FBFEF745FCD4E7FEF742FCD8E7FEF715
:101CF8003FFCE3E7FEF73CFCE8E7FEF739FCEDE7DD
:101D08003402002010B588B0002303930493059390
:101D1800069307930368B3F1A04F01D008B010BD34
:101D2800044603F1704303F504335A6942F08052C4
:101D38005A615A6902F080520192019A5A6942F432
:101D480000325A615B6903F400330293029B072354
:101D580003930323049303A94FF09040FFF700FD7A
:101D68000D480E4B03600023436083608022C260ED
:101D78004FF4007202614FF40062426120228261D6
:101D8800C361FFF7FFFD18B9034BA3635C62C5E7A6
:101D9800FEF7EEFBF8E700BFF00100200800024064
:101DA80000B583B00A4B5A6942F001025A615B6977
:101DB80003F001030193019B002211460B20FFF75A
:101DC800E3FE0B20FFF7F0FE03B05DF804FB00BF55
:101DD800001002400268094B9A4200D0704782B056
:101DE80003F51C439A6942F000529A619B6903F01B
:101DF80000530193019B02B0704700BF007401407B
:101E080000B587B0002301930293039304930593CD
:101E18000268104B9A4202D007B05DF804FB03F544
:101E28001C435A6942F400325A615B6903F4003377
:101E38000093009B4FF470630193022302930323E2
:101E480004930D23059301A94FF09040FFF788FCF8
:101E5800E2E700BF0074014010B5AEB000242A9438
:101E68002B942C942D94542221460DEB0200FEF75E
:101E780043FA129413941494242221460DEB020081
:101E8800FEF73AFA2022214601A8FEF735FAA548BE
:101E9800A54B03604460846001F03CF8002840F0E2
:101EA80005810C219F4801F09FF8002840F001812E
:101EB8000A219C4801F0D1F8002840F0FD804FF439
:101EC80034432A9300232B932C9308232D932AAA77
:101ED8000521944801F0E3F8002840F0F080402301
:101EE80015930023169317931893012219921A93A6
:101EF8001B931C931D934FF000621E921F934FF487
:101F0800803320934FF00053219315AA052185486B
:101F180001F0DEF8002840F0D5804FF434531293D6
:101F280012AB012205217F4801F05CF9002840F03E
:101F3800CC804FF40743129312AB02220521794853
:101F480001F050F9002840F0C3804FF40743129382
:101F580012AB04220521734801F044F9002840F02F
:101F6800BA804FF43453129312AB082205216D48FE
:101F780001F038F9002840F0B1802AAA0021694808
:101F880001F08DF8002840F0AC80002115911691E1
:101F98002291239124914FF48073259326912791C0
:101FA80010232893299115AA5E4801F091F800287A
:101FB80040F09A8015AA01215A4801F089F80028B2
:101FC80040F095806023129312AB012200215548FE
:101FD80001F008F9002840F08D804FF44063099320
:101FE80001230A9300210B914FF400420C924FF405
:101FF80080420D920E930F914FF0004310934FF0D3
:102008008043119309AA474801F09AF8002874D12F
:1020180099220A9200230C930D930E921093119318
:1020280009AA01213F4801F08BF8002868D1002156
:1020380001914FF4807302934FF40073039304915A
:10204800059106910791089101AB0122354801F0ED
:10205800AAF9002857D14FF4806302934FF4006324
:10206800039301AB042201212E4801F09CF90028BA
:102078004CD100210291039101AB0222294801F0C1
:1020880092F9002845D101AB08220121254801F029
:102098008AF9002840D12AAA0121224800F0FFFF2E
:1020A800E8BB2048FFF7ACFE2EB010BDFEF760FA83
:1020B800F7E6FEF75DFAFBE6FEF75AFAFFE6FEF7EB
:1020C80057FA0CE7FEF754FA27E7FEF751FA30E71C
:1020D800FEF74EFA39E7FEF74BFA42E7FEF748FA01
:1020E8004BE7FEF745FA50E7FEF742FA62E7FEF7DC
:1020F8003FFA67E7FEF73CFA6FE7FEF739FA87E73A
:10210800FEF736FA93E7FEF733FAA4E7FEF730FA5C
:10211800AFE7FEF72DFAB6E7FEF72AFABBE7FEF7B8
:1021280027FABEE7840200200074014008B50B4876
:102138000B4B03604FF41643436000238360C36076
:1021480003610C2242618361C3610362436201F04F
:102158006EFB00B908BDFEF70BFAFBE76003002031
:102168000038014000B589B0002303930493059318
:10217800069307930268134B9A4202D009B05DF8A0
:1021880004FB03F558439A6942F480429A619A69BC
:1021980002F480420192019A5A6942F480225A61FB
:1021A8005B6903F480230293029BC02303930223F9
:1021B8000493032306930723079303A90248FFF711
:1021C800CFFADBE700380140000400487047704749
:1021D800704738B50268936803F00303012B01D0F8
:1021E800002038BD0446136813F0010F33D09368FC
:1021F80003F00D03012B09D0036C43F010030364B3
:10220800436C43F0010343640120EAE7936843F019
:1022180002039360036803221A60FEF767FD054610
:1022280023689B6813F0010F13D0FEF75FFD401B76
:102238000228F5D923689B6813F0010FF0D0236CAE
:1022480043F010032364636C43F0010363640120CB
:10225800C7E70020C5E70020C3E7000038B50446FB
:102268000268936803F00303012B0DD091681A4BA1
:1022780019420FD0236C43F010032364636C43F0BE
:1022880001036364012038BD136813F0010FEDD01A
:102298000020F8E7936843F001039360FEF726FDFA
:1022A800054623681B6813F0010F13D1FEF71EFDC6
:1022B800431B022BF5D923681B6813F0010FF0D1DB
:1022C800236C43F010032364636C43F001036364DD
:1022D8000120D8E70020D6E73F00008008B5406A13
:1022E800036C43F040030364436C43F0040343640A
:1022F800FFF76EFF08BD08B5406AFFF768FF08BD25
:1023080008B5436A1A6C12F0500F1AD11A6C42F4CD
:1023180000721A641A68D26812F4406F0DD15A7E9E
:102328005AB91A6C22F480721A641A6C12F4805F1B
:1023380003D11A6C42F001021A641846FFF746FFEF
:1023480008BD9B6B1B6B9847FAE7000030B597B048
:1023580000230193002800F0F7800446036C13F073
:10236800100F52D1036CABB1002023689A6812F0A9
:10237800805F03D09B6813F0005F47D0236C23F085
:10238800120343F010032364636C43F00103636496
:1023980001203BE04364C364836480F83C30FFF76A
:1023A800B1FC23689B6813F0805F01D00020DCE754
:1023B8002046FFF70EFF236C13F0100FD5D100282D
:1023C800D3D1236C23F4885323F0020343F0020390
:1023D80023642268936823F04053936022689368CB
:1023E80043F080539360594B1B68594AA2FB03235F
:1023F8009B0C03EB83035B00019302E0019B013B11
:102408000193019B002BF9D1AFE70020236C13F057
:10241800100F40F09080002840F08D802368996864
:1024280011F0040140F08780226C22F4817242F09E
:1024380002022264B3F1A04F54D04FF0A04202929E
:102448009A6802F00302012A4FD0029B23B19A68CE
:1024580002F00302012A4DD03E4A936823F4403328
:1024680065682B439360627E5303656B012D01D031
:102478004FF480510B43E1680B43A1680B4394F878
:10248800201001293BD0A26A012A02D0E16A0A433E
:1024980013432268916811F00C0F0CD1D16821F414
:1024A800804121F00201D160217E94F83020520051
:1024B80042EA813213432168CD68274A2A401A43E9
:1024C800CA602369012B2DD02268136B23F00F03F8
:1024D800136300236364236C23F0030343F00103B5
:1024E80023642FE01D4A0292AAE71B6813F0010F2C
:1024F800B9D1AAE71B6813F0010FB4D1ACE732B920
:10250800626A013A43EA424242F48033BBE7226CF2
:1025180022F0220242F020022264626C42F00102A0
:102528006264B0E721680B6B23F00F03E269013A9C
:1025380013430B63CDE7236C23F0120343F010031E
:102548002364012017B030BD0120FBE758000020AC
:1025580083DE1B430003005007C0F0FF000100505A
:10256800F8B504460068806810F0040F40F08380D6
:102578000E46154694F83C30012B7ED0012384F892
:102588003C303F4B9B6813F01F0F05D0002384F8A5
:102598003C3001273846F8BD2046FFF75FFE074666
:1025A800002864D1236C23F4706323F0010343F4FF
:1025B80080732364324B9B6813F01F0F17D0226877
:1025C800B2F1A04F13D0236C43F4801323642D4B36
:1025D8009A421BD14FF0A043DB6813F0007F15D05F
:1025E800236C23F4405343F4805323640EE0236C9C
:1025F80023F4801323642368DB6813F0007F05D07D
:10260800236C23F4405343F480532364236C13F462
:10261800805F29D0636C23F006036364002384F889
:102628003C30A36B184A9A62A36B184ADA62A36B10
:10263800174A1A6323681C221A602268536843F0F9
:10264800100353602268D36843F00103D360216804
:102658002B4632464031A06BFFF7BCF922689368DD
:1026680043F00403936095E700236364D6E70023EF
:1026780084F83C308EE702278CE702278AE700BF00
:10268800000300500001005009230008FF22000841
:10269800E522000870B590F83C30012B43D0044681
:1026A8000D46012380F83C30FFF793FD06460028CD
:1026B80034D1012323642268936823F08043936014
:1026C800012D1FD02268936843F000439360FEF702
:1026D8000DFB054623689B68002B19DAFEF706FBFD
:1026E800431B0A2BF6D923689B68002BF2DA236C6C
:1026F80023F0120343F010032364002384F83C30D2
:1027080001260EE02268936843F080439360D9E77E
:10271800236C23F0030343F001032364002384F8AC
:102728003C30304670BD0226FBE7000030B496B05E
:102738000022019290F83C20012A00F0A58103466E
:10274800012280F83C200068826812F0040F40F0F3
:1027580090814A68042A35D8046B02EB4202520081
:102768004FF01F0C0CFA02FC24EA0C0C0C68944085
:102778004CEA040404631868826812F00C0F6BD1E9
:102788000A68092A4FD9846902EB42021E3A4FF0BF
:10279800070C0CFA02FC24EA0C048D6805FA02F214
:1027A8002243826148691C68E268C2F3C102520090
:1027B80090400A69013A032A00F28D80DFE802F0AE
:1027C800426A7580092A10D8446B02EB4202520013
:1027D8001E3A4FF01F0C0CFA02FC24EA0C040D6898
:1027E80005FA02F222434263C5E70E2A0DD8846B2C
:1027F80002EB420252003C3A1F25954024EA0504A8
:102808000D6895402C438463B5E7C46B02EB420224
:1028180052005A3A1F25954024EA05040D68954050
:102828002C43C463A7E7446902EB42024FF0070C4C
:102838000CFA02FC24EA0C048D6805FA02F2224321
:102848004261AFE7256E914A2A400D6840EA8565E6
:102858002A4342F0004222661868826802F00302A6
:10286800012A68D0CA68012A6BD0D0F8B0200124A8
:102878000D68AC4022EA0402C0F8B0200A68102AA9
:1028880000F08680112A00F0A480122A00F0A780A8
:102898000020F3E0656E7D4A2A400D6840EA8565B0
:1028A8002A4342F000426266D6E7A56E774A2A407C
:1028B8000D6840EA85652A4342F00042A266CBE7EC
:1028C800E26E724D15400A6840EA8262154345F08F
:1028D8000045E566C0E7226E02F0F8420868B2EBF0
:1028E800806F03D1226E22F0004222661A68506E71
:1028F80000F0F8400C68B0EB846F03D1506E20F004
:10290800004050661A68906E00F0F8400C68B0EB12
:10291800846F03D1906E20F0004090661A68D06EE4
:1029280000F0F8400C68B0EB846F95D1D06E20F0C1
:102938000040D06690E7026812F0010F92D00020A4
:102948009CE0D0F8B0200D680124AC402243C0F8C8
:10295800B0200A68092A0DD91D68A86902EB42024D
:102968001B3A0724944020EA04008C6894402043D2
:10297800A86183E71D686869013202EB42020724F7
:10298800944020EA04008C6894402043686175E70D
:102998003F49896811F4000F7FF474AF1868B0F1EB
:1029A800A04F23D04FF0A0410291816801F00301AC
:1029B80001291ED0029921B18C6804F00304012C6E
:1029C80021D0102A24D0112A42D0122A4AD000201D
:1029D80054E02F49896811F0807FDFD055E72C49F2
:1029E800896811F4800FD9D0002047E02949029165
:1029F800DBE7016811F0010FDCD01A6C42F020020D
:102A08001A6401203AE0096811F0010FF5D1D8E7FE
:102A1800B0F1A04FD7D11E498A6842F400028A60FB
:102A28001D4A1268A1F14E61A1F58421A1F27D41F0
:102A3800A1FB0212920C02EB82025200019202E008
:102A4800019A013A0192019A002AF9D1002015E071
:102A5800B0F1A04FB9D10E498A6842F080728A60FD
:102A680000200BE00A498A6842F480028A6000204C
:102A780004E01A6C42F020021A640120002283F854
:102A88003C2016B030BC70470220FAE700F0FF8304
:102A980000030050000100505800002030B494B0EA
:102AA80003460268B2F1A04F3DD04FF0A04000901D
:102AB8000098002876D093F83CC0BCF1010F73D081
:102AC8004FF0010C83F83CC0926812F0040F5ED1FD
:102AD800826812F0040F5AD10A68002A32D0334CA7
:102AE800A26822F4604293F830C04D6845EA4C3C35
:102AF80042EA0C02A2601C68A26802F00302012AE2
:102B080014D0826802F00302012A15D0274CA2686B
:102B180022F4716222F00F020868896801430A43AF
:102B2800A260002038E022480090C1E7226812F035
:102B3800010FE6D000202FE0026812F0010FE5D067
:102B4800002029E019498A6822F460428A601968DD
:102B58008A6802F00302012A0DD0826802F003029B
:102B6800012A0ED011498A6822F4716222F00F02FC
:102B78008A60002010E00A6812F0010FEDD00020F2
:102B88000AE0026812F0010FECD0002004E01A6C91
:102B980042F020021A640120002283F83C2014B07D
:102BA80030BC70470120FAE70220F8E70003005024
:102BB8000001005010B40468226822F007028B68F4
:102BC800134323F01803CA681A43226003680A688B
:102BD8005A6103684A689A615DF8044B704730B5DA
:102BE800046801F1010C4FEACC1C54F80C3023F0B6
:102BF800070E936843EA0E0323F01803D5682B43A6
:102C080044F80C300368146803EBC113C3F894400C
:102C18000368526803EBC113C3F8982030BD30B481
:102C280004682268D4F8A05322F020024B691343A9
:102C380023F400628B69134323F48062CB69134346
:102C480023F0C0620B6A134323F000624B6A1343FC
:102C580023F040438A6A43EA820323F000530A6B55
:102C68001A4325F48035CB6A1D4322600368C3F8F4
:102C7800A05330BC70472DE9F04105684B1CDB01BF
:102C8800EC5824F07044EC500668F35806EBC11475
:102C9800D4F8E880D4F8E440D6F8A05323F0200C08
:102CA800536943EA0C0323F4006C936943EA0C0369
:102CB80023F4806CD36943EA0C0323F0C06C136AD5
:102CC80043EA0C0323F0006C536A43EA0C0323F035
:102CD800704C936A43EA0C0323F40033176BB7F183
:102CE800005F32D023F04003D2F834C04CEA03032B
:102CF80023F48023176D47EA030E2EF0FC7E936CB5
:102D080043EA0E0E28F01F07936B03F01F033B43A3
:102D180023F00043D76B3B43BCF1000F03D124F4ED
:102D28008074176C3C43576CB7F5606F10D0B7F5DB
:102D3800F05F0DD024F4F0543C43D76C042910D82C
:102D4800DFE801F00A272D33390043F40033C9E7DF
:102D5800BCF1400FF1D1EDE725F40035D26A45EA20
:102D680042054A1CD20146F802E0026802EBC11291
:102D7800C2F8E830036803EBC113C3F8E440036802
:102D880003EBC113C3F8D4700368C3F8A053BDE8BC
:102D9800F08125F48025D26A45EA8205E1E725F429
:102DA8000025D26A45EAC205DBE725F48015D26A18
:102DB80045EA0215D5E725F40015D26A45EA421519
:102DC800CFE70000F0B4076807EBC114D4F8E4605B
:102DD800D4F8B850202A33D8022A03D2012A4BD07B
:102DE80000220BE0023A012404FA02F22C4C22429F
:102DF80033D144F2040422423ED10022FE249440FE
:102E080026EA04061C68944044EA060CDC689440F0
:102E180044EA0C041E6906FA02FC4CEA040C5C69DC
:102E2800944044EA0C0C9C69944044EA0C04082E33
:102E38002FD0036803EBC113C3F8E440F0BC70471C
:102E4800B2F5807F18D004D9B2F5007F05D00022F2
:102E5800D4E7402A10D0802A0CD15A6807EBC11752
:102E6800C7F8C42002689C6802EBC112C2F8C840C7
:102E78001022C3E70022C1E75A6807EBC117C7F859
:102E8800BC2002689C6802EBC112C2F8C040002254
:102E9800B4E715F0022FCCD1DB6993401C43C8E797
:102EA80041000040052933D8DFE801F00B131B234C
:102EB8002B030268D2F8843343F00103C2F8843349
:102EC80070470268D2F8843343F00203C2F88433AF
:102ED80070470268D2F8843343F00403C2F884339D
:102EE80070470268D2F8843343F00803C2F8843389
:102EF80070470268D2F8843343F01003C2F8843371
:102F080070470268D2F8843343F02003C2F8843350
:102F180070470000002862D010B582B00446022332
:102F280080F8C1300023C0F8C430C0F8C830C0F8F9
:102F3800CC30C0F8D030C0F8D430C0F8D83083686E
:102F480013F0010F12D00268264B9A4225D021684F
:102F58000A6822F44042236903F44043134323F4EC
:102F68004053626902F440521A430A602046FEF751
:102F780031FFA36813F0020F08D021680A6822F411
:102F88004072E36803F4407313430B60012384F831
:102F9800C130002384F8C0301CE003F51C439A6953
:102FA80042F000529A619B6903F000530193019B20
:102FB800CDE7C3EBC30204EB820200219161D1612A
:102FC800116251629162C3EBC30204EB8202116386
:102FD8000133DBB2052BECD9002002B010BD012073
:102FE800704700BF0074014090F8C030012B32D008
:102FF800012380F8C030022380F8C130B1F1FF3FCF
:103008001AD00268D2F8CC3343F00203C2F8CC33AA
:103018000268D2F8CC3323F00C030B43C2F8CC334C
:103028000268D2F8CC3343F00103C2F8CC33012351
:1030380080F8C130002070470268D2F8CC3323F002
:103048000203C2F8CC330268D2F8CC3343F0010350
:10305800C2F8CC33EBE70220704770B504460D4642
:10306800FDF744FE06462368D3F8883313F4803FFF
:103078000ED1B5F1FF3FF6D0FDF738FE801BA84210
:1030880001D8002DEFD1072384F8C130032005E0D3
:10309800012384F8C130002084F8C00070BD10B549
:1030A800044690F8C100C0B202280BD0022384F86D
:1030B800C130052907D02046FFF791FD012384F888
:1030C800C130002010BD11462046FFF773FDF5E71B
:1030D80070B5044690F8C100C0B2022828D00E4648
:1030E800154694F8C030012B28D0012384F8C0304D
:1030F800022384F8C13005291BD02046FFF7BBFD09
:103108002A68C6EBC60304EB83031A626A685A622C
:10311800AA689A62EA68DA622A691A63314620461E
:10312800FFF7C0FE012384F8C130002084F8C000F6
:1031380070BD11462046FFF772FDE1E70220F7E770
:10314800034690F8C100C0B2022845D093F8C000E9
:1031580001283FD030B54FF0010E83F8C0E00220BF
:1031680083F8C100106800F4E0545068C0F3080008
:103178000443906800F400700443106900F4804030
:103188000443D06800F4004004431448556900EA39
:10319800054C4CEA040C906900F0007040EA0C0CF5
:1031A800106A00F0804040EA0C0CD06900F0004042
:1031B80040EA0C001A6802EBC111D1F8B840084A7D
:1031C80022400243C1F8B82083F8C1E0002083F808
:1031D800C00030BD02207047704700BF0000FF01EB
:1031E8000020003C844690F8C100C0B2022800F0DC
:1031F800D9809CF8C000012800F0D08030B40120AC
:103208008CF8C00002208CF8C100052909D0013AC9
:10321800072A00F2BC80DFE802F02E43BA7ABABA75
:10322800BA82013A072A1FD8DFE802F0040F1E14F9
:103238001E1E1E19DCF800201B68D3619CF8C130E3
:10324800DBB2072B24D1012028E0DCF800201B6822
:103258005362F3E7DCF800201B689362EEE7DCF8C2
:1032680000201B68D362E9E707238CF8C1300023EC
:103278008CF8C030E2E7DCF800201B6802EBC112D2
:10328800C2F89C309CF8C130DBB2072B00F0888074
:1032980001238CF8C13000208CF8C00030BC704786
:1032A800DCF80020186802EBC112C2F8A4005A68C2
:1032B80022B3DCF800404A1CD201A05820F4405048
:1032C800A050DCF80040A0585D682843A0505A6818
:1032D800B2F5005F0AD0B2F5405FD3D1DCF8002028
:1032E8009B6802EBC112C2F8A830CBE7DCF80020DB
:1032F8009B6802EBC112C2F89C30C3E7DCF80020DF
:103308000131C901535823F440535350BAE7DCF84C
:1033180000201B6802EBC112C2F8A830B2E7DCF843
:103328000020186802EBC112C2F8AC005A682AB330
:10333800DCF800404A1CD201A05820F44040A050BC
:10334800DCF80040A0585D6840EA8500A0505A6843
:10335800B2F5005F0AD0B2F5405F93D1DCF80020E7
:103368009B6802EBC112C2F8A8308BE7DCF800209A
:103378009B6802EBC112C2F89C3083E7DCF800209E
:103388000131C901535823F4404353507AE70723C6
:103398008CF8C13000238CF8C03073E702207047E6
:1033A80001207BE7704738B5044690F8C100C0B2E9
:1033B800022811D094F8C00001280ED0012584F805
:1033C800C050022084F8C1002046FFF7FBFC84F8B7
:1033D800C150002084F8C00038BD0220FCE790F8F6
:1033E800C030012B15D010B4012280F8C020022370
:1033F80080F8C1300468D4F894330B43C4F894338C
:1034080080F8C120002380F8C03018465DF8044BCE
:1034180070470220704790F8C030012B13D010B4C9
:10342800012280F8C020022380F8C1300468236894
:103438000B43236080F8C120002380F8C030184671
:103448005DF8044B704702207047026852E8003F5D
:1034580023F4907342E800310029F6D1026802F1A2
:10346800080353E8003F23F00103083242E8003123
:103478000029F3D1036E012B06D02023C0F8803039
:103488000023036683667047026852E8003F23F012
:10349800100342E800310029F6D1EEE710B50446E2
:1034A80083680269134342691343C269134301687D
:1034B80008684E4A02401A430A602268536823F497
:1034C8004053E1680B435360A269236A1A43216899
:1034D8008B6823F4306313438B602368444A934218
:1034E80014D0444A934227D002F5806293421FD0F9
:1034F8001023E069B0F5004F20D0082B70D8DFE822
:1035080003F04A60486F636F6F6F66003A4B1B6B3E
:1035180003F00303032B09D8DFE803F00204060CC9
:103528000023E6E70423E4E70823E2E71023E0E7C3
:103538000023DEE70223DCE70023DAE7082B49D87B
:10354800DFE803F0051F2548224848480900FEF730
:1035580009F8002840D06268530803EB4003B3FB26
:10356800F2F3A3F110014FF6EF72914236D89AB2F6
:1035780022F00F02C3F3420313432268D3600020F2
:103588001BE0FEF705F8E4E7FDF7E2FEE1E71B487C
:10359800E1E71A4802E0FDF7E5FF18B3636800EBBE
:1035A8005300B0FBF3F0A0F110024FF6EF739A420C
:1035B8001AD8236880B2D86000200023A366E36687
:1035C80010BDFDF7E5FFE8E7FDF7C2FEE5E74FF4BC
:1035D8000040E3E70120F0E70020EEE70120ECE7F8
:1035E8000120EAE70020E8E70120E6E7F369FFEFBA
:1035F80000380140004400400010024000127A00E8
:10360800436A13F0080F06D00268536823F4004396
:10361800416B0B435360436A13F0010F06D00268F5
:10362800536823F40033816A0B435360436A13F0F1
:10363800020F06D00268536823F48033C16A0B4333
:103648005360436A13F0040F06D00268536823F4EA
:103658008023016B0B435360436A13F0100F06D0AD
:103668000268936823F48053816B0B439360436A29
:1036780013F0200F06D00268936823F40053C16B3F
:103688000B439360436A13F0400F0AD002685368F3
:1036980023F48013016C0B435360036CB3F5801F54
:1036A8000BD0436A13F0800F06D00268536823F4E6
:1036B8000023816C0B43536070470268536823F4FE
:1036C800C003416C0B435360EBE72DE9F843054613
:1036D8000E4617469946DDF820802B68DC6936EAE5
:1036E80004040CBF01240024BC4236D1B8F1FF3FCA
:1036F800F3D0FDF7FBFAA0EB0900404530D8B8F14C
:10370800000F2FD02B681A6812F0040FE5D0802E16
:10371800E3D0402EE1D0DA6912F0080F11D1DA694E
:1037280012F4006FD9D04FF400621A622846FFF7EE
:103738008CFE2023C5F88430002385F878300320D8
:103748000CE008241C622846FFF77FFEC5F8844079
:10375800002385F87830012000E00020BDE8F883D8
:103768000320FBE70320F9E730B583B004460023C4
:10377800C0F88430FDF7BAFA05462268126812F0DC
:10378800080F0FD123681B6813F0040F26D12023DC
:10379800E367C4F8803000202066606684F878000B
:1037A80003B030BD6FF07E430093034600224FF410
:1037B80000112046FFF789FF0028E3D0226852E86D
:1037C800003F23F0800342E800310029F6D120238E
:1037D800E367002384F878300320E1E76FF07E4345
:1037E80000932B4600224FF480012046FFF76DFF1F
:1037F8000028CCD0226852E8003F23F4907342E8B6
:1038080000310029F6D1226802F1080353E8003F8D
:1038180023F00103083242E800310029F3D12023C4
:10382800C4F88030002384F878300320B8E768B300
:1038380010B50446C36F03B32423E36722681368F3
:1038480023F001031360636AE3B92046FFF726FEFD
:10385800012811D02268536823F4904353602268EA
:10386800936823F02A0393602268136843F00103E6
:1038780013602046FFF778FF10BD80F87830FEF718
:1038880071FCD9E72046FFF7BBFEDEE70120704751
:103898000C4AD2F8FC3043F08073C2F8FC300A4B73
:1038A800002159601A6842F001021A60074B03FBB5
:1038B80000F0074B1860074B1960074B00221A608D
:1038C800704700BF00ED00E0001000E040420F002C
:1038D800F0030020EC030020E803002082B00A4B2C
:1038E8005B680193019B02689B1A07EE903AF8EE19
:1038F800677A064B93ED000AB8EE400A019B036015
:1039080087EE800A02B07047001000E0F003002044
:1039180010B52DED028B044680ED030ADFED0E7A1B
:1039280060EEA70AB7EE001AC1EE207AC0ED027A5F
:1039380077EE807A9FED098AF0EE480A80EE270A32
:1039480000F01DF884ED040A84ED008A84ED018AF4
:10395800BDEC028B10BD00BFD00FC94000000000B5
:1039680080ED000AD0ED017A30EE670A90ED047A16
:1039780020EE070A37EE800A80ED010A7047B4EEA0
:10398800E00AF1EE10FA07D4B4EEC10AF1EE10FA2B
:1039980004DDB0EE410A7047B0EE600A7047F8B532
:1039A80004460180002646608D002846FCF7E8FBA7
:1039B8000746A0602846FCF7E3FBE060002323618C
:1039C80063612A4631463846FCF796FC2A4631465A
:1039D800E068FCF791FCE66126626662A662F8BDC3
:1039E80010B52DED068B404C404BA362404B6362F3
:1039F8002362F7EE002AC4ED0E2A3E4B63639FED67
:103A08003E8A9FED3E3A9FED3E9ADFED3EAA9FED3E
:103A18003EAADFED3E9A51220021F6EE005AB0EEA2
:103A2800485AF0EE484AB0EE484AF0EE433AB0EE53
:103A3800492AF0EE6A1AB0EE491AF0EE4A0AB0EED8
:103A4800690A04F1480000F0D3FBDFED318A112246
:103A58000021F0EE685AB0EE485AF0EE484AB0EE4F
:103A6800484AF0EE483AB0EE483AF6EE002AB0EE90
:103A7800492AF0EE6A1AB0EE491AF0EE4A0AB0EE98
:103A8800690A04F5907000F0B3FBF3EE0E0AB0EE8D
:103A9800680A04F50370FFF73BFFF1EE040AB0EE85
:103AA800680A04F5FC70FFF733FFF1EE040AB0EE84
:103AB800680A04F50870FFF72BFF164C0021204612
:103AC800FEF7E8FD032214492046FEF749FD134C92
:103AD8000F212046FFF783FC4FF4E0212046FFF733
:103AE8009AFCBDEC068B10BD1004002052B85E3F56
:103AF800B81E053E0000A04100000000CDCC4C3FA0
:103B08006F12833A6F1283BACDCC4C3E9A99193F03
:103B1800ACC5273734020020480600208402002064
:103B280010B52D4BD3ED007AB8EE670ADFED2B6A9E
:103B380020EE260A9FED2A7A20EE070A9FED296AD1
:103B480020EE060A284C84ED000AD3ED017AF8EE3F
:103B5800677A67EEA67A67EE877A67EE867AC4EDAB
:103B6800017AD3ED027AF8EE677A67EEA67A67EE05
:103B7800877AB2EE047A67EE877A9FED1C7A77EE41
:103B8800C77AC4ED027A04F5FC70FFF7E9FE84ED0C
:103B9800040A94ED010A04F50370FFF7E1FE84EDD1
:103BA800050A94ED020A04F50870FFF7D9FE84EDC2
:103BB800060AD4ED047A94ED057AC7EE876AC4ED57
:103BC8000B6AB3EE046AC6EE076AC4ED0C6A20EE0F
:103BD800270A84ED030A10BD4806002033335340FA
:103BE8000000803985EB454110040020CDCCCC3D48
:103BF80010B51D48D0ED0D0A90ED040A483000F0CC
:103C08002FFB1A4B83ED000A194B93ED007AF2EE65
:103C1800047AB4EEE77AF1EE10FA17DA124C94ED62
:103C28000A1A31EE011ADFED130A104B93ED000A60
:103C3800FFF7A5FE84ED110A0D4BD3ED007AB7EE20
:103C4800007A77EE877AC3ED007A10BD0648D0ED8A
:103C58000E0A90ED060A00F5907000F001FB064B85
:103C680083ED000ADAE700BF1004002008040020F2
:103C780004040020000000000004002038B51A4C9D
:103C880094ED0B7AF7EE007A37EE276AC7EE066AEC
:103C9800164BC3ED006A94ED0C6A36EE277AC6EE31
:103CA800077A134BC3ED007A94ED110A77EEE67AA2
:103CB8009FED107A67EE877A30EE270A0E4D85ED74
:103CC800000A94ED0A1AD4ED090AFFF758FE85EDAB
:103CD800000A94ED0A1AD4ED090AFFF750FE84EDA4
:103CE8000F0A84ED100A38BD10040020FC030020E0
:103CF800F8030020CDCCCC3DF403002008B54FF4E8
:103D080080613248FDF70AFEC0B9314B0021D96104
:103D18004FF434425A629962DA622E4B93ED047A78
:103D2800D3ED0D7AB4EEE77AF1EE10FA46DD012212
:103D380020214FF09040FDF7F8FD08BD4FF4806159
:103D48002248FDF7EBFD0128E7D1224A92ED0F7AD0
:103D5800F7EE007A37EEC77A77EEC76AF6EE005AC2
:103D680066EEA56A9FED1C6A66EE866AFCEEE66A58
:103D7800174BC3ED076A37EE277A27EE257A27EE29
:103D8800067ABCEEC77A83ED097AD2ED106A77EE2F
:103D9800E66A36EEA77A27EE257A27EE067ABCEE93
:103DA800C77A83ED0A7A77EEE67A67EEA57A67EE48
:103DB800867AFCEEE77AC3ED0B7AAEE70022202183
:103DC8004FF09040FDF7B1FDB7E700BF0004004891
:103DD80000740140100400200000344708B50D4865
:103DE800FFF77CFD0C4B83ED000A0C4BD3ED007AFA
:103DF80077EE807AC3ED007AFFF792FE084B094A06
:103E08009A62094A5A62FFF7F3FEFFF737FFFFF796
:103E180075FF08BD540600205C06002058060020E7
:103E2800100400209A99193FCDCC4C3E10B5FCF7F0
:103E38005DFF5F4B18605F4B01221A705E4B93F871
:103E48003C206FF3451283F83C20D2B26FF3041282
:103E580083F83C20002453E004EB8402564B03EB28
:103E6800C203DB7C13F0100F49D0514B1A68524B38
:103E780004EB840103EBC10C53F83110501ABCF861
:103E88001030C3F30B0398423DD99CF8143013F05B
:103E9800100F0CD19CF8140040F020008CF814008E
:103EA800C0B240F010008CF81400CCF80820424B47
:103EB80004EB840203EBC202117D01F00F013D4ABD
:103EC800127802EB820203EBC2031B7D03F00F039F
:103ED800994201D9374B1C70374B93F83C2042F07C
:103EE800200283F83C20D2B242F0100283F83C2032
:103EF80004EB840203EBC2031B6A03B19847013445
:103F0800002CA9DD10BD04EB84002B4B03EBC00390
:103F1800D868121A5B8AC3F30B039A420FD204EBD8
:103F28008402254B03EBC20303F110021B7D6FF3E0
:103F380045131371DBB243F010031371DFE704EB91
:103F480084021D4B03EBC20303F110021B7D6FF3C8
:103F580045131371DBB213F0400F1FD004EB84023A
:103F6800154B03EBC2031A7D42F010021A7504EBDD
:103F78008402114B03EBC2035B689942BFD9C91A8B
:103F880007EE901AF8EE677ADFED0C6A86EEA77AEC
:103F9800094B03EBC20383ED067AB0E704EB840216
:103FA800054B03EBC2031A7D6FF304121A75DEE7A3
:103FB80064060020600600206806002000007A449D
:103FC80000B589B0002304930593069307930193E2
:103FD8000293039314484FF08042026047224260E4
:103FE80083606322C26003618361FCF73DFD90B981
:103FF8004FF48053049304A90B48FCF773FD68B988
:1040080000230193039301A90748FCF7EBFD40B98E
:1040180009B05DF804FBFCF7ABFAE9E7FCF7A8FA8E
:10402800EEE7FCF7A5FAF3E7B80600200368B3F15A
:10403800804F00D0704700B583B003F50433DA69C8
:1040480042F00102DA61DB6903F001030193019B8D
:10405800002211461C20FDF797FD1C20FDF7A4FD4A
:1040680003B05DF804FB0000D0ED0A6A90ED0C7A0D
:1040780036EE877A1F4B83ED007AD0ED097A76EE1B
:10408800A77A90ED0B6A77EE867A1B4BC3ED007A20
:10409800F5EEC07AF1EE10FA28DD90ED106AB4EE74
:1040A800E76AF1EE10FA0AD5D0ED067A66EEA76A4D
:1040B800F5EEC06AF1EE10FA01DD00230363D0EDDE
:1040C800127AB4EEE77AF1EE10FA03DD0023036307
:1040D800C0ED0A7AD0ED137AB4EEE77AF1EE10FA71
:1040E80003D500230363C0ED0A7A7047F1EE677ABF
:1040F800D3E700BF080700200407002090ED0B6AF3
:10410800D0ED277A26EE276A90ED197A77EE877A2E
:10411800C6EE276A90ED0F6A27EE067A87EE276AC1
:1041280076EE867AC0ED0B7A704790ED0D7AD0ED79
:10413800107AB4EEE77AF1EE10FA01DDC0ED0D7AEF
:1041480090ED0D7AD0ED117AB4EEE77AF1EE10FA2F
:1041580001D5C0ED0D7A704790ED0D7AD0ED107A4B
:10416800DFED206A67EEA67AB4EEE77AF1EE10FA90
:1041780031D4D0ED007AB0EEE77ADFED1B6AB4EE09
:10418800E67AF1EE10FA26D4D0ED046A77EEE67AF4
:10419800F0EEE77AC7EE876ADFED147AF4EEE76AA5
:1041A800F1EE10FA18DDD0F8A830D0F8AC200133C1
:1041B80042F10002C0F8A830C0F8AC20D0F8A8102E
:1041C800D0F8AC3040F2F512914273F1000302D3FB
:1041D800012380F8B030704700220023C0E92A2369
:1041E800ECE700BF6F12833A17B7D1383333733F08
:1041F80070B50446164680ED142A80ED121AC0EDFB
:10420800131A80ED100AC0ED110A00250560C0EDF3
:10421800012A80ED023AC0ED033A056380ED164AA3
:10422800C0ED174A80ED185AC0ED195AA0F8681069
:104238006C30FFF7B4FB0023C4F8983084F8A4600E
:1042480000200021C4E92A0184F8B0306563C4F86D
:10425800C050C4F8C450C4F8C850C4F8CC5070BD9D
:1042680038B52DED028B044610EE105AB0EE608A78
:1042780090F9A430002BC0F2918004F19800FFF768
:104288002DFB84ED270A256184ED008AB0EEC88AEB
:10429800DFED497AB4EE678AF1EE10FA8CBF01239C
:1042A8000023DFED467AB4EE678AF1EE10FAB8BF64
:1042B80043F001030BB1002222610BB100232360FC
:1042C800D4ED007A94ED047A77EEC77AC4ED307AAB
:1042D800F5EEC07AF1EE10FA63DDB0EE677AD4ED50
:1042E800146AF4EEC76AF1EE10FA40D5D4ED016A0B
:1042F80094ED317A37EEC76A66EE866AC4ED096ACC
:10430800D4ED026A67EEA66A60EE266AC4ED0A6A10
:10431800D4ED036A37EE077A77EEC77A94ED327AEE
:1043280077EE877A66EEA77A87EE807A84ED0B7A45
:1043380094F8A43013F0010F36D194F8A43013F098
:10434800400F35D1D4ED097A94ED0A7A77EE877A61
:1043580094ED0B7A77EE877AC4ED337A94ED0D7A83
:1043680077EE877AC4ED0D7A2046FFF7DEFE2369E3
:10437800636194ED0D0A84ED0E0AE36AE363A369B1
:10438800E361236B2362D4F8C430C4F8C830D4F88E
:10439800C030C4F8C430BDEC028B38BDFFF7DCFE7A
:1043A8006BE7B1EE677A9AE72046FFF75DFEC4E750
:1043B8002046FFF7A3FEC5E7FFFF7F7F00008000D0
:1043C800DFF834D0FDF712FC0C480D490D4A0023E4
:1043D80002E0D458C4500433C4188C42F9D30A4AB2
:1043E8000A4C002301E013600432A242FBD3FBF71E
:1043F800EDFFFCF709F9FEE700300020000000207F
:104408005C00002074440008600000200C070020B5
:10441800FEE70000F8B500BFF8BC08BC9E46704730
:0C442800F8B500BFF8BC08BC9E46704709
:104434000102030405060708090A0B0C0D0E0F10F0
:1044440002030405060708090A0B0C0D0E0F1010D1
:10445400000000000102030400000000000000004E
:08446400010203040607080928
:04446C002D05000812
:044470000905000832
:10447400040000200000000068000020D00000209C
:1044840038010020000000000000000000000000CF
:104494000000000000000000000000000000000018
:1044A4000000000000000000000000000000000008
:1044B40000000000000000000000000000000000F8
:0C44C400010000001000000000127A004F
:04000005080043C9E3
:00000001FF
