:020000040800F2
:1000000000300020CD640008E5210008E721000849
:10001000E9210008EB210008ED21000800000000A4
:10002000000000000000000000000000EF210008B8
:10003000F121000800000000F3210008F52100086C
:100040001D6500081D6500081D6500081D65000888
:100050001D6500081D6500081D6500081D65000878
:100060001D6500081D6500081D650008FD210008CC
:100070000D2200081D6500081D6500081D650008AB
:100080001D2200082D2200081D6500081D650008BE
:100090001D6500081D6500081D6500081D65000838
:1000A0001D6500081D6500081D6500081D65000828
:1000B0003D2200081D650008000000001D650008C5
:1000C0001D65000800000000000000001D6500081C
:1000D000000000001D6500081D6500081D65000882
:1000E0001D6500081D6500080000000000000000FC
:1000F0000000000000000000000000000000000000
:1001000000000000000000000000000000000000EF
:1001100000000000000000001D6500081D650008CB
:1001200000000000000000000000000000000000CF
:1001300000000000000000000000000000000000BF
:100140001D6500081D650008000000001D65000811
:100150001D6500081D6500081D6500081D65000877
:100160001D6500081D65000800000000000000007B
:10017000000000000000000000000000000000007F
:08018000000000001D650008ED
:10018800024B0146186800F02FB800BF000000209D
:10019800024B0146186800F055B900BF0000002066
:1001A80070B5104E336805460C46B3B12146284653
:1001B80000F0F4F8431C0CD0C41C24F00304A04243
:1001C80005D0211A284600F0E9F8013001D0204670
:1001D80070BD4FF0FF34204670BD194600F0DEF8C0
:1001E8003060E3E7780000202DE9F041CD1C25F0D0
:1001F800030508350C2D38BF0C25002D82B00646A6
:1002080016DBA94214D8354F00F06AF87A68AAB10B
:10021800144603E06368224683B11C4623685B1BCF
:10022800F8D40B2B21D8A242636855D053600DE057
:100238000C233360002002B0BDE8F0812946304627
:10024800FFF7AEFF431C044619D00560304600F0A6
:100258004DF804F10B00231D20F00700C21A1CBF43
:100268001B1AA35002B0BDE8F0816119A2422560B3
:1002780014BF51607960635163684B60E6E77B683F
:1002880023B31C465B68002BFBD1226801931946F7
:10029800304604EB020800F081F8804516D1226848
:1002A800AD1A29463046FFF77BFF01300ED0226891
:1002B8007868019B2A442260426812B90CE0104613
:1002C8005268A242FBD100234360BFE70C2333608E
:1002D800304600F00BF8ADE77B60B7E77800002008
:1002E800014800F0A5B800BFD0010020014800F087
:1002F800A7B800BFD0010020830730B547D0541EEF
:10030800002A3ED0CAB2034601E0013C39D303F8C3
:10031800012B9D07F9D1032C2CD9CDB205EB05256E
:100328000F2C05EB054535D9A4F1100222F00F0C6E
:1003380003F1100EE6444FEA121C1A461560556088
:100348009560D56010327245F8D10CF1010214F0B5
:100358000C0F03EB021204F00F0C13D0ACF10403E2
:1003680023F003030433134442F8045B9A42FBD19D
:100378000CF003042CB1C9B21C4403F8011B9C42C5
:10038800FBD130BD64461346002CF4D1F9E703468F
:100398001446C0E71A46A446E0E700BF38B5074D43
:1003A8000022044608462A6003F092F9431C00D054
:1003B80038BD2B68002BFBD0236038BDBC01002062
:1003C800014B1868704700BF0000002070B50F4B44
:1003D8000F4DAB42A3EB050607D0B610002455F825
:1003E800043B01349847A642F9D806F095F8094D20
:1003F800094B5E1BAB424FEAA60606D0002455F80F
:10040800043B01349847A642F9D870BD70650008CE
:10041800706500087065000874650008704700BFC3
:10042800704700BF704700BF704700BF704700BFEC
:10043800704700BF0120704701207047704700BF18
:10044800704700BF002950D038B551F8043C0C1F44
:10045800002BB8BFE4180546FFF742FF274A136888
:100468002BB1A3420CD92168601883422CD0636059
:1004780028461460BDE83840FFF738BFA3420FD8BC
:100488001A465B68002BF9D111685018844217D0BE
:100498002CD3636054602846BDE83840FFF726BF78
:1004A80011685018A04214D020D8216860188342DF
:1004B800EFD118685B680844C4E900035460EAE7B0
:1004C80023680B441360E6E718685B6808442060FB
:1004D800CDE720680144501883421160DBD1D3E98D
:1004E80000040144C2E90014D5E770470C232B60CF
:1004F8002846BDE83840FFF7F9BE00BF7C00002061
:10050800F8B52DED028B55EC114B57EC106B00F044
:1005180073F922462B4620462946B0EE408AF0EE73
:10052800608A01F00BFD78B9002200233046394675
:1005380001F0D2FCF0B1002200232046294601F048
:10054800CBFC40B19FED288BB0EE480AF0EE680A6C
:10055800BDEC028BF8BD45EC104B00F049F80028C3
:10056800F2D0002200232046294601F0BFFC0028D3
:10057800EAD02EE0B0EE480AF0EE680A00F038F84B
:10058800A0B151EC180B0022002301F0A5FC0028B3
:10059800DAD047EC106B00F02BF80028D4D045ECEB
:1005A800104B00F025F80028CED012E047EC106B75
:1005B80000F01EF80028E4D045EC104B00F018F8C5
:1005C8000028DED053EC182B51EC180B01F0B6FCC8
:1005D80020B9FFF7F5FE22230360B5E7FFF7F0FE29
:1005E80021230360B0E700BF000000000000F03FD7
:1005F80082B08DED000B019840F0004000F58010AE
:10060800C00F02B0704700BF2DE9F047774855EC9E
:10061800104BA84300F0A680002D21462B46224609
:1006280055DD2C1500F0D080C3F31303E107A4F2C5
:10063800FF3743F4801303D4D10F01EB4303520077
:100648005B00002603EBD2737F1052001624B446D9
:100658004FF400110CEB0100984203DC1B1A01EB6C
:10066800000C0E445B00013C03EBD2734FEA5101CE
:100678004FEA4202EED1A04620254FF000400AE0A2
:100688003CD0590001EBD271013D0B464FEA4202C2
:100698004FEA50003ED09C4508EB000EF0DABEF160
:1006A800000F0EEB00080CDBE146A3EB0C019645AE
:1006B80088BF01F1FF314900CC46A2EB0E02044489
:1006C800E0E7B8F1000FEFDB0CF10109EDE725F0E9
:1006D8000040204340D0002D6BD1D10A153B520574
:1006E8000029FAD0CE021C4610460B466DD52025AF
:1006F8004FF0FF31E840641A034395E7964502D965
:100708004FEA4C01BEE7BEF1000F0EEB000825DBF7
:100718000021D2E7114310D0DFF8D4A0DAE90001B4
:10072800DAE9022300F0B8FFDAE9008902460B464D
:100738004046494601F0E4FB10BB65087110F30719
:1007480001F17F5101F5001148BF45F0004501EB6B
:1007580007532A4643EC102BBDE8F087B8F1000F89
:10076800B2DAD5E722462B462046294601F04CF955
:1007780022462B4600F092FF41EC100BBDE8F087B3
:10078800B4F1FF3FDAE90001DAE9022329D000F0E9
:1007980085FFDAE9008902460B464046494601F0E2
:1007A800A5FB00B3A21C04F1020508BF01366D08C1
:1007B800C4E72046294600F06FFF02460B4601F0C9
:1007C8004DFA41EC100BC7E7084600225B00DD023A
:1007D800114602F10102F9D5C2F1200500FA02F230
:1007E80088E70136AAE70134A7E700BF0000F07FD9
:1007F80050000020000000002DE9F04F55EC114B8F
:1008080025F0004353EA040057EC106B93B012D163
:10081800B3198D4987F4002252419842914120D260
:1008280022462B463046394600F038FF41EC100B83
:1008380013B0BDE8F08F854827F0004A8245B846D6
:10084800314613D908F1404808F5801858EA0108DC
:10085800E6D123197C4985F40022524198459141FB
:10086800DED39FED770B13B0BDE8F08FA946224683
:1008780016D08342E6D8504600F0C980B8F1000F80
:1008880016DB002A40F0B180DFF8CCC1634540F0A8
:10089800F583B9F1000FC0F2FD8447EC106BC7E790
:1008A800002EBDD15345BBD800F01E845046E5E765
:1008B800DFF8A8C1634500F2F183DFF898C163450A
:1008C8000FD94FEA235CACF2FF3CBCF1140F40F3A4
:1008D800C784CCF1340C22FA0CFE0EFA0CFC9445B9
:1008E80038D0002A48D1B9F1804F3CD0934647EC24
:1008F800106B04910290009300F074FD0499009B22
:100908000298002945D04FEAD872013A52EA0B0101
:1009180000F092800BF1FF3B5BEA020B00F0A98329
:100928009FED477B8DED067BB3F1844F40F29880B5
:10093800474A9342474B40F227849A4500F2C284C3
:10094800B9F1000FC0F2C284002013B0BDE8F04F27
:1009580000F00ABE0EF0010ECEF1020B002A46D1BD
:10096800B9F1804FC3D132463B463046394601F093
:100978004BF841EC100B5BE747EC106B04910290CD
:10098800009300F02FFD0499009B0298002953D191
:100998008B46314A28F04041914202D0BAF1000F0B
:1009A800B1D1B9F1000F07DA53EC102B2A49002016
:1009B80001F054F941EC100BB8F1000FBFF638AF55
:1009C8000AF1404A0AF5801A5AEA0B0A40F06C8488
:1009D80053EC102B1046194600F05EFE02460B46FB
:1009E80001F03CF941EC100B22E74FF0000B47EC0B
:1009F800106B04910290009300F0F4FC0499009BA2
:100A080002980029C5D04FEAD872013A82E7002C33
:100A18007FF418AF0AF1404303F5801333433FF4E2
:100A280020AF0C4B9A4540F20D84B9F1000FC0F28B
:100A3800838445EC104BFBE632463B46CAE700BFD1
:100A4800000000000000F03F0000F0FF0000F07F11
:100A58000000F043FFFFEF3F0000F03FFFFF3F4380
:100A6800D94B08EA0303002253B951EC100BD74BBA
:100A780000F0CAFF41EC100B10EE900A6FF0340240
:100A88000315A3F2FF339A18D14B0B92C0F313004E
:100A980040F07F56984246F4401640F32983CD4BE8
:100AA800984240F319849FEDB27B8DED087B9FED52
:100AB800B27B8DED047B9FEDAE7B8DED107B01321B
:100AC8000B92A6F58016002753EC102B9246504641
:100AD800DDE90423314600F0DFFDB346DDE90423F8
:100AE8008046894650463146CDE90CAB00F0D6FD2C
:100AF80002460B460020B84901F0B0F88C46834600
:100B080063465A4640464946CDE90EBC00F07CFF94
:100B18000A460146CDE90012CDE9021200210091F2
:100B28007610DDE900AB46F0005606F500230020FC
:100B3800D91906460F4602460B465046594600F05C
:100B480063FF02460B464046494600F0A5FDDDE935
:100B58000423804689463046394600F09DFD02460A
:100B68000B46DDE90C0100F097FD52465B4600F0AC
:100B78004BFF02460B464046494600F08DFDDDE935
:100B88000E2300F041FFDDE90267CDE9040132469A
:100B98003B463046394600F037FF79A3D3E90023B6
:100BA80006460F4600F030FF77A3D3E9002300F094
:100BB80075FD32463B4600F027FF75A3D3E90023B5
:100BC80000F06CFD32463B4600F01EFF72A3D3E9ED
:100BD800002300F063FD32463B4600F015FF70A38A
:100BE800D3E9002300F05AFD32463B4600F00CFFE3
:100BF8006DA3D3E9002300F051FD324680468946B3
:100C08003B463046394600F0FFFE02460B4640465A
:100C1800494600F0F9FE524606460F465B46DDE9B6
:100C2800020100F03BFDDDE9042300F0EDFE324651
:100C38003B4600F033FD5246804689465B465046A7
:100C4800594600F0E1FE654B002206460F4600F0CB
:100C580025FD42464B46CDE90C8900F01FFD4FF0BB
:100C68000008894642464B465046594600F0CCFE9D
:100C78005A4B82468B4600224046494600F00CFDFE
:100C880032463B4600F008FD02460B46DDE90C0102
:100C980000F002FDDDE9022300F0B6FE42464B46B5
:100CA80006460F46DDE9040100F0AEFE02460B469B
:100CB8003046394600F0F2FC8046894642464B46AB
:100CC8005046594600F0EAFC002639A3D3E9002330
:100CD80030460F4600F098FE5246CDE902015B46C9
:100CE8003046394600F0D8FC02460B464046494695
:100CF80000F0D2FC30A3D3E9002300F085FE0246C1
:100D08000B463046394616461F462DA3D3E9002325
:100D180000F07AFE02460B463046394600F0BEFC2B
:100D2800DDE9102300F0BAFC80460B98894600F0F4
:100D380001FE424682468B464B46DDE9020100F041
:100D4800ADFCDDE9082300F0A9FC52465B4600F043
:100D5800A5FC002652465B4630460F4600F09CFC38
:100D6800DDE9082300F098FCDDE9022338E000BF44
:100D78000000000000000000000000000000F03F3C
:100D8800EF4E454A287ECA3F65DBC9934A86CD3F68
:100D980001411DA96074D13F4D268F515555D53F4E
:100DA800FFAB6FDBB66DDB3F033333333333E33FE6
:100DB800000000E009C7EE3FFD033ADC09C7EE3F3B
:100DC800F5015B14E02F3EBE0000F07F00004043B9
:100DD8008E98030079B60B000000F03F0000084031
:100DE80000F05AFC02460B464046494600F054FCC7
:100DF8000023CDE900450093DDE90089824642469B
:100E08008B46204629464B4600F046FC32463B4678
:100E180000F0FAFD22462B4604460D465046594638
:100E280000F0F2FD02460B462046294600F036FC4B
:100E3800424604460D464B4630463946CDE9024502
:100E480000F0E2FD06460F46204629463B4632465C
:100E580000F024FCC64B994204460D46884640F3F0
:100E6800238101F13F4303F5E003034340F044824B
:100E7800A7A3D3E90023DDE9020100F00FFC024635
:100E88000B462046294614461D4632463B4600F08E
:100E980003FC02460B462046294601F045F8002887
:100EA80040F02A824FF400734344C3F30A52B14C12
:100EB800A2F2FF321441C3F3130AC2F11402002054
:100EC80004EA03014AF4801A4AFA02FA0B46024677
:100ED800B8F1000F30463946B8BFCAF1000A00F031
:100EE800DBFB02460B4606460F46DDE9020100F031
:100EF800D5FB4FEA0A5B0D46002487A3D3E90023FC
:100F08002046294600F080FD3246804689463B4609
:100F18002046294600F0C0FB02460B46DDE90201E7
:100F280000F0BAFB7EA3D3E9002300F06DFD024672
:100F38000B462046294614461D467BA3D3E90023C9
:100F480000F062FD02460B462046294600F0A6FB4B
:100F580006460F4632463B464046494600F09EFB51
:100F680042464B4604460D4600F096FB02460B46A9
:100F78003046394600F090FB2246804689462B468B
:100F88002046294600F040FD69A3D3E90023064620
:100F98000F4600F039FD68A3D3E9002300F07CFB7D
:100FA80032463B4600F030FD65A3D3E9002300F04C
:100FB80075FB32463B4600F027FD63A3D3E90023C7
:100FC80000F06AFB32463B4600F01EFD60A3D3E901
:100FD800002300F063FB32463B4600F015FD024655
:100FE8000B462046294600F057FB06460F46324678
:100FF8003B462046294600F007FD02460B46304690
:10100800394616461F4600224FF0804300F044FB45
:1010180002460B463046394600F020FE4246064658
:101028000F464B462046294600F0EEFC42464B460A
:1010380000F034FB02460B463046394600F02CFBE4
:1010480022462B4600F028FB0B4602464A49002060
:1010580000F022FB0B465B44B3F5801FC0F25681BB
:101068001946DDE9062300F0CFFC41EC100BFFF731
:10107800DFBB9FED397B8DED067B55E4B9F1804FE1
:101088003FF471ACDFF8F8C0E1457FF42FAC47ECD2
:10109800106B13B0BDE8F04FFFF7B6BA002A00F0A6
:1010A8004F814FF0020BA2E4DFF8D8C021F00043D3
:1010B800634540F2E780314B0B4403430AD1324683
:1010C8003B4600F0E9FADDE9022300F023FF00289F
:1010D8003FF4E8AEDDE906010022002300F006FF38
:1010E800003818BF012030E4002C7FF499AB98E455
:1010F8009FED1B7B8DED087B9FED1B7B8DED047BAE
:101108009DED087B00278DED107BDDE4AFF30080BB
:10111800FE822B654715973C00000000432EE63FF2
:10112800EF39FAFE422EE63F396CA80C615C20BE0E
:10113800D0A4BE726937663EF16BD2C541BDBB3ED5
:101148002CDE25AF6A56113F93BDBE166CC1663FB3
:101158003E5555555555C53F000000000000F0BFED
:101168000000000000000000000000000000F03F48
:10117800FFFF8F400000F0FF0000F03F00346F3F9A
:101188000000E03FFFCB90409A45C0F0C780924BEB
:101198009A454FF0000200F2DB8051EC100B8E4BA9
:1011A80000F07AFA7CA3D3E9002306460F4600F044
:1011B8002BFC7BA3D3E9002382468B463046394675
:1011C80000F022FC854BCDE900010022304639466B
:1011D80000F01AFC02460B4673A1D1E9000100F0A9
:1011E8005BFA32463B4600F00FFC02460B460020F5
:1011F8007B4900F051FA3246804689463B463046E4
:10120800394600F001FC02460B464046494600F0CC
:10121800FBFB67A3D3E9002300F0F6FB02460B466D
:10122800DDE9000100F038FA8046894642464B461F
:101238005046594600F032FA002652465B460F46A1
:101248003046CDE5B9F1000F9FED5B0BBFF6F0AA74
:1012580005F1004300EE104A00EE903AFFF7E8BAB5
:10126800002A7FF489ABCCF1140C43FA0CFE0EFA79
:101278000CFC9C4579D0DFF860C163453FF409ABAD
:10128800FFF731BB564A93427DD8DDE900239346E8
:10129800924631E65049002032463B4600F0DEFCDB
:1012A80041EC100BFFF7C4BABBF1010F7FF4C0AAE1
:1012B80010EE901A10EE102A01F1004343EC102BA7
:1012C800FFF7B6BAB9F1000F7FF73EAB002013B0B5
:1012D800BDE8F04F00F058B99FED397B8DED087BE4
:1012E8009FED397B8DED107B9FED397B4FF4802787
:1012F8008DED047BFFF7E8BBDDE906010022002342
:1013080000F0F4FD003818BF0120E0E741EC100BB5
:10131800504600F071F851EC100BA2E6DDE9060129
:101328000022002300F0E2FD003818BF0120B9F1C7
:10133800000FBFF60AABCAE79FED1F0BFFF778BA9D
:10134800B9F1804F3FF40FAB4FF0020BFFF7CFBA64
:10135800DDE90601002300F0C9FD003818BF0120AF
:10136800B9F1000FB3DCFFF7F0BA1B4A93423FF420
:1013780090AAB9F1804F3FF4F6AA0EF0010ECEF113
:10138800020BFFF7B4BA1B15A3F2FE334FF4801219
:1013980042FA03F388E500BF000000604715F73FF5
:1013A80044DF5DF80BAE543E555555555555D53F60
:1013B800FE822B654715F73F000000000000000083
:1013C8000000004003B8E23F06D0CF43EBFD4C3E9F
:1013D800000000000000F83F0000F03F0000D03F90
:1013E8000000E03F51EC100B024621F0004343ECB3
:1013F800102B70470000000038B553EC102B044642
:10140800C3F30A50194678BB23F000411143104634
:1014180029D0194600223A4B3A4D00F0F5FAAC4271
:1014280002460B4653DBC1F30A5036384CF2503CA7
:10143800644523DC044440F2FE7084421EDC002C28
:1014480034DC14F1350F3ADB21F0FF4121F4E001DF
:10145800363441EA04531046194600222A4B00F05C
:10146800D3FA41EC100B38BD40F2FF7C6045DDD16A
:10147800104600F013F941EC100B38BD002B18A1F1
:10148800D1E9000107DB16A3D3E9002300F0BCFA79
:1014980041EC100B38BD14A1D1E9000110A3D3E928
:1014A800002300F0B1FA41EC100BF3E721F0FF4103
:1014B80021F4E00141EA045343EC102B38BD002B22
:1014C8000BA1D1E9000102DA0BA1D1E9000108A3BF
:1014D800D3E9002300F098FA41EC100B38BD00BFA7
:1014E8009C7500883CE4377E9C7500883CE437FE98
:1014F80059F3F8C21F6EA50159F3F8C21F6EA581F2
:1015080000005043B03CFFFF0000903C000000008A
:1015180010B52DED028BB0EE408AF0EE608A0446DD
:10152800FEF74EFFB0EE480AF0EE680ABDEC028BFB
:10153800046010BD00B5034683B051EC100B7BB1BD
:10154800024601F10043CDE90023DDE9002300F064
:101558005BFA41EC100B222003B05DF804EBD7E7EF
:1015680002460B46EFE700BF9FED010BE2E700BF25
:1015780000000000000000109FED010BDAE700BF3B
:10158800000000000000581E9FED010BD2E700BFCD
:10159800000000000000007000B5002283B078B1A0
:1015A800084BCDE90023DDE900010022002300F00B
:1015B80055FB41EC100B222003B05DF804EBA7E7C4
:1015C800014BEEE70000F0BF0000F03F38B555ECE6
:1015D800104B2DED028B22462B462046294600F063
:1015E8005BF802460B4600F039FB224641EC180B2B
:1015F8002B462046294600F0A1FCB0EE480AF0EE42
:10160800680A28B9BDEC028B2120BDE838407FE785
:10161800BDEC028B38BD00BF08B551EC100B2DEDA9
:10162800028BB0EE408AF0EE608A0022002300F0C0
:1016380053FCB0EE480AF0EE680A10B9BDEC028B14
:1016480008BDBDEC028B2220BDE8084060E700BF62
:10165800F8B555EC104B25F000470C4B4FF0FF3216
:101668002046394600F06AFC38B9084B204639460E
:101678004FF0FF3200F044FC10B145EC104BF8BDC0
:1016880045EC104B2220BDE8F84041E7FFFFEF7F13
:1016980081F0004102E000BF83F0004330B54FEA1B
:1016A80041044FEA430594EA050F08BF90EA020F88
:1016B8001FBF54EA000C55EA020C7FEA645C7FEA1B
:1016C800655C00F0E2804FEA5454D4EB5555B8BF3E
:1016D8006D420CDD2C4480EA020281EA030382EAAF
:1016E800000083EA010180EA020281EA0303362D41
:1016F80088BF30BD11F0004F4FEA01314FF4801C14
:101708004CEA113102D0404261EB410113F0004F25
:101718004FEA03334CEA133302D0524263EB4303DC
:1017280094EA050F00F0A780A4F10104D5F1200E7A
:101738000DDB02FA0EFC22FA05F2801841F10001D5
:1017480003FA0EF2801843FA05F359410EE0A5F1A9
:1017580020050EF1200E012A03FA0EFC28BF4CF0DA
:10176800020C43FA05F3C01851EBE37101F0004590
:1017780007D54FF0000EDCF1000C7EEB00006EEB9D
:101788000101B1F5801F1BD3B1F5001F0CD3490827
:101798005FEA30004FEA3C0C04F101044FEA44527E
:1017A80012F5800F80F09A80BCF1004F08BF5FEA05
:1017B800500C50F1000041EB045141EA050130BDE5
:1017C8005FEA4C0C404141EB0101013C28BFB1F5F7
:1017D800801FE9D291F0000F04BF01460020B1FA42
:1017E80081F308BF2033A3F10B03B3F120020CDA15
:1017F8000C3208DD02F1140CC2F10C0201FA0CF0F3
:1018080021FA02F10CE002F11402D8BFC2F1200C57
:1018180001FA02F120FA0CFCDCBF41EA0C0190400D
:10182800E41AA2BF01EB0451294330BD6FEA040456
:101838001F3C1CDA0C340EDC04F11404C4F1200241
:1018480020FA04F001FA02F340EA030021FA04F353
:1018580045EA030130BDC4F10C04C4F1200220FAAA
:1018680002F001FA04F340EA0300294630BD21FAE8
:1018780004F0294630BD94F0000F83F4801306BFAE
:1018880081F480110134013D4EE77FEA645C18BFA2
:101898007FEA655C29D094EA050F08BF90EA020F39
:1018A80005D054EA000C04BF1946104630BD91EA31
:1018B800030F1EBF0021002030BD5FEA545C05D134
:1018C8004000494128BF41F0004130BD14F5800473
:1018D8003CBF01F5801130BD01F0004545F0FE41E7
:1018E80041F470014FF0000030BD7FEA645C1ABF1C
:1018F800194610467FEA655C1CBF0B46024650EA53
:10190800013406BF52EA033591EA030F41F400217E
:1019180030BD00BF90F0000F04BF0021704730B504
:101928004FF4806404F132044FF000054FF00001D9
:1019380050E700BF90F0000F04BF0021704730B59A
:101948004FF4806404F1320410F0004548BF40426F
:101958004FF000013EE700BF42004FEAE2014FEAC4
:1019680031014FEA02701FBF12F07F4393F07F4F9F
:1019780081F06051704732F07F4208BF704793F0A2
:101988007F4F04BF41F40021704730B54FF46074B5
:1019980001F0004521F000411CE700BF50EA0102B8
:1019A80008BF704730B54FF000050AE050EA010261
:1019B80008BF704730B511F0004502D5404261EBD1
:1019C80041014FF4806404F132045FEA915C3FF412
:1019D800D8AE4FF003025FEADC0C18BF03325FEAAF
:1019E800DC0C18BF033202EBDC02C2F1200300FA60
:1019F80003FC20FA02F001FA03FE40EA0E0021FA85
:101A080002F11444BDE600BF70B54FF0FF0C4CF472
:101A1800E06C1CEA11541DBF1CEA135594EA0C0F24
:101A280095EA0C0F00F0DEF82C4481EA030621EA5F
:101A38004C5123EA4C5350EA013518BF52EA03359A
:101A480041F4801143F4801338D0A0FB02CE4FF04C
:101A58000005E1FB02E506F00042E0FB03E54FF07C
:101A68000006E1FB03569CF0000F18BF4EF0010E74
:101A7800A4F1FF04B6F5007F64F5407404D25FEA70
:101A88004E0E6D4146EB060642EAC62141EA555123
:101A98004FEAC52040EA5E504FEACE2EB4F1FD0C65
:101AA80088BFBCF5E06F1ED8BEF1004F08BF5FEAE3
:101AB800500E50F1000041EB045170BD06F0004695
:101AC80046EA010140EA020081EA0301B4EB5C0442
:101AD800C2BFD4EB0C0541EA045170BD41F480113A
:101AE8004FF0000E013C00F3AB8014F1360FDEBF5F
:101AF800002001F0004170BDC4F10004203C35DA3B
:101B08000C341BDC04F11404C4F1200500FA05F3BD
:101B180020FA04F001FA05F240EA020001F000425E
:101B280021F0004110EBD37021FA04F642EB0601D4
:101B38005EEA430E08BF20EAD37070BDC4F10C04FE
:101B4800C4F1200500FA04F320FA05F001FA04F2C2
:101B580040EA020001F0004110EBD37041F10001AE
:101B68005EEA430E08BF20EAD37070BDC4F12005B9
:101B780000FA05F24EEA020E20FA04F301FA05F221
:101B880043EA020321FA04F001F0004121FA04F2C9
:101B980020EA020000EBD3705EEA430E08BF20EA99
:101BA800D37070BD94F0000F0FD101F000464000D3
:101BB80041EB010111F4801F08BF013CF7D041EA55
:101BC800060195F0000F18BF704703F00046520059
:101BD80043EB030313F4801F08BF013DF7D043EA2A
:101BE8000603704794EA0C0F0CEA135518BF95EAE0
:101BF8000C0F0CD050EA410618BF52EA4306D1D167
:101C080081EA030101F000414FF0000070BD50EA85
:101C1800410606BF1046194652EA430619D094EA0F
:101C28000C0F02D150EA013613D195EA0C0F05D1F9
:101C380052EA03361CBF104619460AD181EA03014D
:101C480001F0004141F0FE4141F470014FF0000005
:101C580070BD41F0FE4141F4780170BD70B54FF0A0
:101C6800FF0C4CF4E06C1CEA11541DBF1CEA135520
:101C780094EA0C0F95EA0C0F00F0A7F8A4EB050402
:101C880081EA030E52EA03354FEA013100F08880F9
:101C98004FEA03334FF0805545EA131343EA1263C2
:101CA8004FEA022245EA111545EA10654FEA002677
:101CB8000EF000419D4208BF964244F1FD0404F530
:101CC800407402D25B084FEA3202B61A65EB03058C
:101CD8005B084FEA32024FF480104FF4002CB6EB49
:101CE800020E75EB030E22BFB61A754640EA0C00C9
:101CF8005B084FEA3202B6EB020E75EB030E22BF09
:101D0800B61A754640EA5C005B084FEA3202B6EB49
:101D1800020E75EB030E22BFB61A754640EA9C0008
:101D28005B084FEA3202B6EB020E75EB030E22BFD8
:101D3800B61A754640EADC0055EA060E18D04FEA96
:101D4800051545EA16754FEA06164FEAC30343EA36
:101D580052734FEAC2025FEA1C1CC0D111F4801F03
:101D68000BD141EA00014FF000004FF0004CB6E7FC
:101D780011F4801F04BF01430020B4F1FD0C88BF9B
:101D8800BCF5E06F3FF6AFAEB5EB030C04BFB6EBA6
:101D9800020C5FEA500C50F1000041EB045170BD99
:101DA8000EF0004E4EEA113114EB5C04C2BFD4EBC6
:101DB8000C0541EA045170BD41F480114FF0000E4A
:101DC800013C90E645EA060E8DE60CEA135594EAC6
:101DD8000C0F08BF95EA0C0F3FF43BAF94EA0C0FC9
:101DE8000AD150EA01347FF434AF95EA0C0F7FF43E
:101DF80025AF104619462CE795EA0C0F06D152EA92
:101E080003353FF4FDAE1046194622E750EA410675
:101E180018BF52EA43067FF4C5AE50EA41047FF486
:101E28000DAF52EA43057FF4EBAE12E74FF0FF3CEB
:101E380006E000BF4FF0010C02E000BF4FF0010CBC
:101E48004DF804CD4FEA410C7FEA6C5C4FEA430C35
:101E580018BF7FEA6C5C1BD001B050EA410C0CBF84
:101E680052EA430C91EA030F02BF90EA020F0020E6
:101E7800704710F1000F91EA030F58BF994208BF4D
:101E880090422CBFD8176FEAE37040F0010070470A
:101E98004FEA410C7FEA6C5C02D150EA013C07D161
:101EA8004FEA430C7FEA6C5CD6D152EA033CD3D0AC
:101EB8005DF8040B704700BF8446104662468C46A6
:101EC8001946634600E000BF01B5FFF7B7FF0028D9
:101ED80048BF10F1000F01BD4DF808EDFFF7F4FF02
:101EE8000CBF012000205DF808FB00BF4DF808ED8D
:101EF800FFF7EAFF34BF012000205DF808FB00BFB0
:101F08004DF808EDFFF7E0FF94BF012000205DF8D1
:101F180008FB00BF4DF808EDFFF7CEFF94BF012086
:101F280000205DF808FB00BF4DF808EDFFF7C4FF7F
:101F380034BF012000205DF808FB00BF4FEA410CC8
:101F48007FEA6C5C02D150EA013C0AD14FEA430CAB
:101F58007FEA6C5C02D152EA033C02D14FF00000E8
:101F680070474FF0010070474FEA4102B2F1E04379
:101F780024BFB3F5001CDCF1FE5C0DD901F0004C68
:101F88004FEAC0024CEA5070B2F1004F40EB8300B8
:101F980008BF20F00100704711F0804F21D113F1E4
:101FA8003872BCBF01F00040704741F480114FEA1D
:101FB8005252C2F11802C2F1200C10FA0CF320FAA6
:101FC80002F018BF40F001004FEAC1234FEAD323C3
:101FD80003FA0CFC40EA0C0023FA02F34FEA43032D
:101FE800CCE77FEA625307D150EA01331EBF4FF0B6
:101FF800FE4040F44000704701F0004040F0FE40D1
:1020080040F40000704700BF10B5054C237833B981
:10201800044B13B10448AFF300800123237010BDB3
:10202800DD010020000000002065000808B5034B12
:102038001BB103490348AFF3008008BD000000004E
:10204800E0010020206500080368B3F1804F00D04C
:10205800704710B5074C23680133236003F084FCF4
:102068002368632B00D810BD03F09CFC002222607B
:10207800F9E700BFF801002072B6FEE700B597B097
:10208800282200210CA8FEF737F9002307930893AC
:1020980009930A930B930093019302930393049378
:1020A8000593069301220C924FF480330D931092FE
:1020B8000222139214934FF4801315930CA800F086
:1020C8009DFBE8B90F230793022108910023099388
:1020D8004FF480620A920B9307A800F0D7FE88B9E4
:1020E8004FF4814300934FF4B07304934FF480533B
:1020F8000693684600F0D0FF30B917B05DF804FBCE
:10210800FFF7BAFFFFF7B8FFFFF7B6FF08B500F013
:1021180051FBFFF7B3FF00F01DF801F029FC01F0B7
:10212800FBFA01F099FC03F007FD01F049FB03F00D
:1021380003FF482002F03AFF9FED040A02F076FF01
:1021480002F0F6FF024800F0C5F8FEE76F12833F81
:10215800FC06002030B589B000240394049405944B
:10216800069407941C4B5A6942F480025A615A69D2
:1021780002F480020092009A5A6942F400325A61CD
:102188005A6902F400320192019A5A6942F4802293
:102198005A615B6903F480230293029B2246C021A3
:1021A8004FF0904001F028F940230393012504954E
:1021B8000594069403A94FF0904001F03FF880235E
:1021C8000393049502230593069403A94FF09040C6
:1021D80001F034F809B030BD00100240FEE7FEE718
:1021E800FEE7FEE7FEE770477047704708B500F066
:1021F800F3FA08BD08B5024801F08EF908BD00BF22
:102208004C02002008B5024801F086F908BD00BF5D
:102218000802002008B5024801F07EF908BD00BF99
:102228005007002008B5024801F076F908BD00BF44
:102238009407002008B5024800F08AF808BD00BFDE
:10224800FC06002082B00A4B9A6942F001029A61AA
:102258009A6902F001020092009ADA6942F080520B
:10226800DA61DB6903F080530193019B02B0704788
:102278000010024010B4036A046A24F001040462E6
:10228800846924F0F00C4CEA021223F00A030B4391
:10229800826103625DF8044B704710B4036A046AF4
:1022A80024F010040462846924F4704C4CEA02326D
:1022B80023F0A00343EA0113826103625DF8044B33
:1022C8007047836823F070030B4343F00703836070
:1022D8007047000090F83D30DBB2012B2AD1022371
:1022E80080F83D300268D36843F00103D360036887
:1022F800134A934210D0B3F1804F0DD0A2F5943217
:10230800934209D002F59E32934205D01A6842F0F2
:1023180001021A600020704799680A4A0A40062A92
:102328000AD0B2F5803F09D01A6842F001021A605B
:102338000020704701207047002070470020704738
:10234800002C014007000100704770477047704734
:1023580070B504460368DE681D6915F0020F10D0D9
:1023680016F0020F0DD06FF002021A6101230377F5
:1023780003689B6913F0030F64D0FFF7E6FF00239F
:10238800237715F0040F12D016F0040F0FD023682E
:102398006FF004021A610223237723689B6913F400
:1023A800407F55D02046FFF7D0FF0023237715F054
:1023B800080F12D016F0080F0FD023686FF008022C
:1023C8001A61042323772368DB6913F0030F46D0CF
:1023D8002046FFF7BAFF0023237715F0100F12D01D
:1023E80016F0100F0FD023686FF010021A6108233F
:1023F80023772368DB6913F4407F37D02046FFF743
:10240800A4FF0023237715F0010F02D016F0010F67
:1024180033D115F0800F02D016F0800F35D115F4A6
:10242800807F02D016F0800F37D115F0400F02D010
:1024380016F0400F39D115F0200F02D016F0200FFA
:102448003BD170BDFFF780FF2046FFF77FFF96E77F
:102458002046FFF779FF2046FFF778FFA5E72046DB
:10246800FFF772FF2046FFF771FFB4E72046FFF73A
:102478006BFF2046FFF76AFFC3E723686FF001028E
:102488001A612046FFF7E0FDC3E723686FF080027A
:102498001A61204600F065F9C1E723686FF480727D
:1024A8001A61204600F05EF9BFE723686FF040022A
:1024B8001A612046FFF74BFFBDE723686FF0200243
:1024C8001A61204600F04CF9BBE700000368264A71
:1024D800904206D0B0F1804F03D0A2F594329042DA
:1024E80003D123F070034A6813431F4A904212D065
:1024F800B0F1804F0FD0A2F5943290420BD002F584
:102508009E32904207D002F58062904203D002F5D5
:102518008062904203D123F44073CA68134323F0C6
:1025280080034A69134303608B68C3620B68836244
:102538000D4B98420BD003F5A053984207D003F5F2
:102548008063984203D003F58063984201D10B69F8
:10255800036301234361036913F0010F03D0036987
:1025680023F0010303617047002C014060B310B5EC
:10257800044690F83D3013B3022384F83D302146D9
:1025880051F8040BFFF7A2FF012384F8483084F8C0
:102598003E3084F83F3084F8403084F8413084F885
:1025A800423084F8433084F8443084F8453084F865
:1025B800463084F8473084F83D30002010BD80F85C
:1025C8003C3003F0EFFAD7E70120704710B4846875
:1025D80024F47F4C42EA03220A4342EA0C02826056
:1025E8005DF8044B7047000090F83C30012B76D022
:1025F80010B50446012380F83C30022380F83D30B2
:1026080002689068374B034093600B68602B4CD08E
:1026180029D8402B54D00CD9502B22D1CA684968EC
:102628002068FFF727FE50212068FFF74AFE0020A8
:1026380005E0202B0DD009D9302B0AD00120012329
:1026480084F83D30002384F83C3010BD0BB1102BCA
:1026580005D119462068FFF734FE0020EFE7012076
:10266800EDE70120EBE7B3F5805F34D0B3F5005F09
:102678000CD1CB684A6889682068FFF7A7FF2268F1
:10268800936843F4804393600020D8E7702B24D1EB
:10269800CB684A6889682068FFF798FF22689368C2
:1026A80043F0770393600020C9E7CA684968206847
:1026B800FFF7F3FD60212068FFF703FE0020BEE767
:1026C800CA6849682068FFF7D5FD40212068FFF7F0
:1026D800F8FD0020B3E70020B1E70120AFE70220B2
:1026E800704700BF8800FEFF90F83C20012A33D0D5
:1026F80030B40346012280F83C20022280F83D20B5
:10270800006842688468154DA84220D022F0700203
:102718000D682A4342601A68104882420AD0B2F112
:10272800804F07D0A0F59430824203D000F59E3048
:10273800824204D124F080048968214391600122F7
:1027480083F83D20002083F83C0030BC704722F419
:1027580070024D682A43D9E702207047002C0140D7
:10276800704770477047000010B504460E4B1A7842
:102778004FF47A73B3FBF2F30C4A1068B0FBF3F032
:1027880000F088FF68B90F2C01D901200AE0002267
:1027980021464FF0FF3000F05FFF054B1C60002022
:1027A80000E0012010BD00BF60000020680000208C
:1027B8006400002008B5074A136843F0100313604B
:1027C800032000F037FF0F20FFF7CEFFFFF73AFD99
:1027D800002008BD00200240034A1168034B1B7803
:1027E8000B441360704700BFFC010020600000200C
:1027F800014B1868704700BFFC010020002800F05A
:10280800FF8270B582B00446036813F0010F3BD015
:10281800B44B5B6803F00C03042B1ED0B14B5B6810
:1028280003F00C03082B13D06368B3F5803F68D01E
:10283800002B40F0928003F1804303F504331A68BB
:1028480022F480321A601A6822F480221A605DE04D
:10285800A44B5B6813F4803FE6D04FF4003393FA3F
:10286800A3F3A04B19684FF4003393FAA3F3B3FA18
:1028780083F303F01F03012202FA03F30B4203D090
:102888006368002B00F0BE82236813F0020F00F08B
:10289800C480944B5B6813F00C0F00F09C80914B44
:1028A8005B6803F00C03082B00F08F802369002B72
:1028B80000F0F080012292FAA2F3B3FA83F303F155
:1028C800845303F584139B001A60FFF791FF0546B4
:1028D800022393FAA3F3834B1968022393FAA3F311
:1028E800B3FA83F303F01F03012202FA03F30B4246
:1028F80040F0C280FFF77CFF401B0228E8D9032084
:1029080089E2784A136843F480331360754AD36ABE
:1029180023F00F03A1680B43D3626368002B36D002
:10292800FFF766FF05464FF4003393FAA3F36D4BA8
:1029380019684FF4003393FAA3F3B3FA83F303F05F
:102948001F03012202FA03F30B429DD1FFF750FF48
:10295800401B6428E7D903205DE2B3F5A02F09D016
:10296800604B1A6822F480321A601A6822F48022B6
:102978001A60CBE703F18043A3F53C331A6842F4AD
:1029880080221A601A6842F480321A60BEE7FFF7A4
:102998002FFF05464FF4003393FAA3F3514B196800
:1029A8004FF4003393FAA3F3B3FA83F303F01F034E
:1029B800012202FA03F30B423FF466AFFFF718FF58
:1029C800401B6428E6D9032025E2464B5B6813F4D4
:1029D800803F7FF46BAF022393FAA3F3414B19684E
:1029E800022393FAA3F3B3FA83F303F01F0301223C
:1029F80002FA03F30B4203D02369934240F00482A6
:102A08003848036823F0F8036169F82292FAA2F2C1
:102A1800B2FA82F291400B430360236813F0080F67
:102A280000F08C80A369002B60D0012191FAA1F2FB
:102A3800B2FA82F22C4B13449B001960FFF7D8FEC0
:102A48000546022393FAA3F293FAA3F293FAA3F2A8
:102A5800244A516A93FAA3F3B3FA83F303F01F03EA
:102A6800012202FA03F30B4268D1FFF7C1FE401BB3
:102A78000228E6D90320CEE11A48036823F0F803B8
:102A88006169F82292FAA2F2B2FA82F291400B43FB
:102A98000360C2E7012393FAA3F3B3FA83F303F1C4
:102AA800845303F584139B0000221A60FFF7A0FEED
:102AB8000546022393FAA3F30A4B1968022393FAF3
:102AC800A3F3B3FA83F303F01F03012202FA03F31B
:102AD8000B42A2D0FFF78CFE401B0228E9D9032045
:102AE80099E100BF0010024020819010012292FA63
:102AF800A2F2B2FA82F2B74B13449B0000221A608A
:102B0800FFF776FE0546022393FAA3F293FAA3F29F
:102B180093FAA3F2B04A516A93FAA3F3B3FA83F390
:102B280003F01F03012202FA03F30B4206D0FFF75A
:102B38005FFE401B0228E6D903206CE1236813F0EE
:102B4800040F00F0A980A44BDB6913F0805F20D14B
:102B5800A14BDA6942F08052DA61DB6903F08053F5
:102B68000193019B01259D4B1B6813F4807F12D0B4
:102B7800E368012B23D073BB03F1804303F50433CF
:102B88001A6A22F001021A621A6A22F004021A6210
:102B98001AE00025E7E7914A136843F4807313604D
:102BA800FFF726FE06468D4B1B6813F4807FDFD1A6
:102BB800FFF71EFE801B6428F5D903202BE1864A07
:102BC800136A43F001031362E368002B3CD0FFF75C
:102BD8000FFE06462EE0052B09D07F4B1A6A22F01D
:102BE80001021A621A6A22F004021A62ECE77A4BAE
:102BF8001A6A42F004021A621A6A42F001021A6260
:102C0800E2E7022393FAA3F3734B596A022393FA78
:102C1800A3F3B3FA83F303F01F03012202FA03F3C9
:102C2800194238D1FFF7E4FD801B41F288339842FE
:102C380000F2EC80022393FAA3F293FAA3F3002B99
:102C4800DFD0654B196AE1E7FFF7D2FD064618E0C9
:102C5800022393FAA3F3604B596A022393FAA3F36E
:102C6800B3FA83F303F01F03012202FA03F31942B4
:102C780011D0FFF7BDFD801B41F28833984200F266
:102C8800C780022393FAA3F293FAA3F3002BDFD0B1
:102C9800514B196AE1E7B5BBE369002B00F0BA8034
:102CA8004D4A526802F00C02082A00F09980022B63
:102CB8002FD04FF0807393FAA3F3B3FA83F303F1A1
:102CC800845303F584139B0000221A60FFF790FDDC
:102CD80004464FF0007393FAA3F33F4B19684FF083
:102CE800007393FAA3F3B3FA83F303F01F030122EB
:102CF80002FA03F319426BD0FFF77AFD001B022892
:102D0800E7D9032087E0344AD36923F08053D3619D
:102D1800C2E74FF0807393FAA3F3B3FA83F303F196
:102D2800845303F584139B0000221A60FFF760FDAB
:102D380005464FF0007393FAA3F3274B19684FF039
:102D4800007393FAA3F3B3FA83F303F01F0301228A
:102D580002FA03F3194206D0FFF74AFD401B022886
:102D6800E7D9032057E01C494B6823F47413626ABF
:102D7800206A024313434B604FF0807393FAA3F326
:102D8800B3FA83F303F1845303F584139B00012200
:102D98001A60FFF72DFD04464FF0007393FAA3F372
:102DA8000D4B19684FF0007393FAA3F3B3FA83F34A
:102DB80003F01F03012202FA03F3194206D1FFF7B9
:102DC80017FD001B0228E7D9032024E0002022E099
:102DD800002020E020819010001002400070004088
:102DE800012B1AD0104B5B6803F48031226A9142A0
:102DF80015D103F47013626A934212D100200AE0DD
:102E080001207047012006E0012004E0032002E0D1
:102E1800032000E0002002B070BD0120FBE7012084
:102E2800F9E70120F7E700BF00100240114B5A688C
:102E380002F00C03042B18D0082B18D1C2F38343DB
:102E48000D49C85C0B4BDB6A03F00F030B49C95CE7
:102E580012F4803F05D00A4BB3FBF1F303FB00F0FB
:102E68007047084B03FB00F0704705487047064859
:102E7800704700BF00100240486500083865000828
:102E8800001BB70000093D0000127A00002800F07E
:102E9800BE8070B50D460446614B1B6803F00703FE
:102EA8008B420BD25E4A136823F007030B4313606F
:102EB800136803F007038B4240F0AB80236813F0DC
:102EC800020F06D0574A536823F0F003A1680B435A
:102ED8005360236813F0010F5AD06368012B2DD07B
:102EE800022B40D0022292FAA2F24E4A1068022225
:102EF80092FAA2F2B2FA82F202F01F02012101FA5A
:102F080002F2104200F0878046494A6822F0030224
:102F180013434B60FFF76CFC0646424B5B6803F0BB
:102F28000C036268B3EB820F32D0FFF761FC801BA1
:102F380041F288339842F0D9032067E04FF4003219
:102F480092FAA2F2374A10684FF4003292FAA2F2CB
:102F5800B2FA82F202F01F02012101FA02F20242E1
:102F6800D2D1012052E04FF0007292FAA2F22D4A1B
:102F780010684FF0007292FAA2F2B2FA82F202F0EE
:102F88001F02012101FA02F21042BDD101203DE0E9
:102F9800234B1B6803F00703AB420AD9204A136886
:102FA80023F007032B431360136803F00703AB42B6
:102FB80033D1236813F0040F06D01A4A536823F458
:102FC800E063E1680B435360236813F0080F07D0F0
:102FD800144A536823F46053216943EAC1035360D8
:102FE800FFF724FF0F4B5B6803F0F003F02292FA1F
:102FF800A2F2B2FA82F2D3400B4AD35CD8400B4B10
:1030080018600B4B1868FFF7AFFB002070BD01205C
:1030180070470120FAE70120F8E70120F6E700BF32
:10302800002002400010024060650008680000208F
:1030380064000020014B1868704700BF680000203A
:1030480008B5FFF7F7FF074B5B6803F4E0634FF43D
:10305800E06292FAA2F2B2FA82F2D340024AD35C58
:10306800D84008BD001002405865000808B5FFF7B1
:10307800E1FF074B5B6803F460534FF4605292FA28
:10308800A2F2B2FA82F2D340024AD35CD84008BD19
:103098000010024058650008F0B583B00446036884
:1030A80013F4803F44D0624BDB6913F0805F78D122
:1030B8005F4BDA6942F08052DA61DB6903F08053D2
:1030C8000193019B01255B4B1B6813F4807F6AD039
:1030D800574B1B6A13F4407321D0626802F44072A4
:1030E8009A421CD05248016A21F440764FF480334A
:1030F80093FAA3F2B2FA82F24F4F3A4492004FF099
:10310800010CC2F800C093FAA3F3B3FA83F33B446B
:103118009B0000221A60066211F0010F57D1444A41
:10312800136A23F4407361680B431362002D74D152
:10313800236813F0010F06D03D4A136B23F00303F5
:10314800A1680B431363236813F0200F06D0384A95
:10315800136B23F01003E1680B431363236813F028
:10316800800F06D0324AD36A23F4F87321690B43DF
:10317800D362236813F4805F06D02D4A136B23F4BF
:10318800807361690B431363236813F4804F4BD03A
:10319800274A136B23F48053A1690B431363002060
:1031A80043E000258FE7234A136843F480731360D4
:1031B800FFF71EFB06461F4B1B6813F4807F87D161
:1031C800FFF716FB801B6428F5D903202DE0FFF7D5
:1031D8000FFB064617E0022393FAA3F3144B596A30
:1031E800022393FAA3F3B3FA83F303F01F03012234
:1031F80002FA03F30B4292D1FFF7FAFA801B41F26D
:10320800883398420ED8022393FAA3F293FAA3F3D1
:10321800002BE0D0064B196AE2E7D36923F080530C
:10322800D36185E7032000E0002003B0F0BD00BFB4
:10323800001002400070004000819010F0B583B08B
:10324800002362E085685E000324B44025EA040593
:10325800CC68B4402C438460456825EA0C054C686A
:10326800C4F300149C402C4344605FE0DD0808353B
:1032780050F8254003F0070C4FEA8C0C4FF00F0E66
:103288000EFA0CFE24EA0E0E0C6904FA0CF444EA59
:103298000E0440F8254060E0032400E0002404FA0E
:1032A8000EF42C430CF1020C4F4D45F82C404F4CBA
:1032B800A568D44325EA02064F6817F4801F01D099
:1032C80042EA0506494DAE60ED6804EA05064F6816
:1032D80017F4001F01D042EA0506444DEE606D6800
:1032E80004EA05064F6817F4003F01D042EA0506D4
:1032F8003E4D6E602D682C404E6816F4803F01D01C
:1033080042EA0504394A146001330A6832FA03F4C0
:1033180068D04FF0010C0CFA03FC1CEA0202F3D04F
:103328004C6804F00304013C012C8BD94C6804F070
:103338000304032C0CD0C4685D004FF0030C0CFA96
:1033480005FC24EA0C0C8C68AC4044EA0C04C4600C
:103358004C6804F00304022C88D004684FEA430E3A
:103368004FF0030C0CFA0EFC24EA0C0C4C6804F029
:10337800030404FA0EF444EA0C0404604C6814F4E0
:10338800403FC1D01A4CA56945F00105A561A46963
:1033980004F001040194019C4FEA930C0CF102051E
:1033A800114C54F8255003F0030E4FEA8E0E0F24EB
:1033B80004FA0EF425EA0405B0F1904F3FF46EAF1D
:1033C8000C4CA0420AD004F58064A04208D004F551
:1033D8008064A0423FF460AF052460E701245EE703
:1033E80002245CE703B0F0BD000001400004014086
:1033F80000100240000400480AB1816170478162F0
:10340800704730B40124056CAC40C56B6C6004682F
:1034180063604368102B05D0036899600368DA601D
:1034280030BC704703689A600368D960F8E7000009
:103438000268054B1344054AA2FB03231B099B00A2
:103448000364034BC3637047F8FFFDBFCDCCCCCCFE
:103458000000024020B310B50446022380F8213052
:1034680001680A6822F47F5222F0300243688068BB
:103478000343E06803432069034360690343A06989
:103488000343E069034313430B602046FFF7D0FF73
:103498000020A063012384F8213084F8200010BDA7
:1034A8000120704738B5044690F82000012831D033
:1034B800012084F8200094F82100012804D000237A
:1034C80084F82030022038BD022084F82100002032
:1034D800A0632568286820F0010028602046FFF7CF
:1034E80090FFE36A5BB12268136843F00E03136030
:1034F8002268136843F0010313600020E3E72268A1
:10350800136843F00A0313602268136823F0040366
:103518001360EDE70220D6E738B5C36B1A68046874
:103528002568016C04238B40134213D015F0040F57
:1035380010D0236813F0200F03D1236823F004036D
:103548002360016CC26B04238B405360C36A03B1D0
:10355800984738BD02238B4013421AD015F0020F4A
:1035680017D0236813F0200F06D1236823F00A032D
:103578002360012380F82130016CC26B02238B4049
:103588005360002380F82030836A002BE1D09847ED
:10359800DFE708238B401342DBD015F0080FD8D0A3
:1035A800236823F00E032360026CC16B012303FA26
:1035B80002F24A60836380F82130002380F82030CB
:1035C800036B002BC5D09847C3E70000002808DB31
:1035D8000901C9B200F1604000F5614080F80013AC
:1035E800704700F00F000901C9B2014B1954704728
:1035F80014ED00E000B500F00700C0F1070CBCF1C5
:10360800040F28BF4FF0040C031D062B0FD9C31E4F
:103618004FF0FF3E0EFA0CF021EA000199400EFA35
:1036280003FE22EA0E0241EA02005DF804FB0023D1
:10363800EEE70000074AD36823F4E0631B041B0C81
:10364800000200F4E060034343F0BF6343F4003337
:10365800D360704700ED00E010B50446054BD8680C
:10366800C0F30220FFF7C6FF01462046FFF7AEFF72
:1036780010BD00BF00ED00E0002807DB00F01F02CE
:10368800400901239340024A42F82030704700BFA6
:1036980000E100E00138B0F1807F0BD24FF0E02369
:1036A8005861054AF02182F823100020986107220A
:1036B8001A6170470120704700ED00E0034AD2F814
:1036C800883043F47003C2F88830704700ED00E09A
:1036D80010B503460C4A0D490D48006840B10C4826
:1036E80000680344521A934206D8094A136010BD71
:1036F8000748084C0460F2E7FCF762FE0C230360FD
:103708004FF0FF30F3E700BF003000200004000056
:10371800000200206008002000B58BB0002307934A
:1037280008930993019302930393049305930693D3
:1037380022484FF0A0420260436083600122026188
:10374800427680F82030C3628262C3600221C16180
:1037580080F83020042242610376436300F0A6FB20
:10376800F8B90023079307A9144800F047FFD8B910
:1037780001230193029300230493052203920593E6
:10378800069301A90D4800F081FD80B90223019339
:10379800029301A9094800F079FD58B90BB05DF80A
:1037A80004FBFEF769FCDCE7FEF766FCE0E7FEF7E2
:1037B80063FCEBE7FEF760FCF0E700BFE0020020E7
:1037C80000B587B0002300930193029303930493F9
:1037D80005931748174A026043608360036101221A
:1037E800427680F82030C3628262C360C26180F88A
:1037F8003020042242610376436300F057FB88B906
:1038080002230093012301930023039305220292CC
:10381800049305936946064800F038FD28B907B0B7
:103828005DF804FBFEF728FCEAE7FEF725FCF6E75F
:10383800900200200001005030B58BB004460023F0
:10384800059306930793089309930368B3F1A04F70
:1038580004D0404A93423FD00BB030BD3E4A136873
:1038680001331360012B29D03C4B5A6942F40032D2
:103878005A615B6903F400330293029B03230593A7
:10388800069305A94FF09040FFF7D8FC3448354B14
:1038980003600023436083608022C2604FF400729B
:1038A80002614FF40062426120228261C361FFF726
:1038B800D1FD70B92A4BA3635C62CDE7274B5A69E7
:1038C80042F080525A615B6903F080530193019B77
:1038D800CAE7FEF7D1FBEDE71F4A1368013313600F
:1038E800012B28D01D4B5A6942F400325A615B699A
:1038F80003F400330493049B2025059503230693C2
:1039080005A94FF09040FFF799FC1748174B036043
:10391800002343608360C3604FF4007202614FF478
:10392800006242618561C361FFF794FD70B90E4B77
:10393800A3635C6290E7094B5A6942F080525A616E
:103948005B6903F080530393039BCBE7FEF794FB7B
:10395800EDE700BF00010050040200200010024003
:103968004C02002008000240080200201C0002400F
:1039780000B583B0164B5A6942F001025A615B697F
:1039880003F001030193019B002202210B20FFF7A2
:1039980063FE0B20FFF770FE002202210C20FFF7C8
:1039A8005BFE0C20FFF768FE002203211020FFF7C2
:1039B80053FE1020FFF760FE002203211120FFF7BD
:1039C8004BFE1120FFF758FE03B05DF804FB00BF63
:1039D800001002400268094B9A4200D0704782B03A
:1039E80003F51C439A6942F000529A619B6903F0FF
:1039F80000530193019B02B0704700BF007401405F
:103A080000B587B0002301930293039304930593B1
:103A18000268104B9A4202D007B05DF804FB03F528
:103A28001C435A6942F400325A615B6903F400335B
:103A38000093009B4FF470630193022302930323C6
:103A480004930D23059301A94FF09040FFF7F6FB6F
:103A5800E2E700BF0074014010B5AEB000242A941C
:103A68002B942C942D94542221460DEB0200FCF744
:103A780043FC129413941494242221460DEB020063
:103A8800FCF73AFC2022214601A8FCF735FCA548A2
:103A9800A54B03604460846000F0ECFF002840F010
:103AA80005810C219F4801F04FF8002840F0018162
:103AB8000A219C4801F081F8002840F0FD804FF46D
:103AC80034432A9300232B932C9308232D932AAA5B
:103AD8000521944801F093F8002840F0F080402335
:103AE80015930023169317931893012219921A938A
:103AF8001B931C931D934FF000621E921F934FF46B
:103B0800803320934FF00053219315AA052185484F
:103B180001F08EF8002840F0D5804FF4345312930A
:103B280012AB012205217F4801F00CF9002840F072
:103B3800CC804FF40743129312AB02220521794837
:103B480001F000F9002840F0C3804FF407431293B6
:103B580012AB04220521734801F0F4F8002840F064
:103B6800BA804FF43453129312AB082205216D48E2
:103B780001F0E8F8002840F0B1802AAA002169483D
:103B880001F03DF8002840F0AC8000211591169115
:103B98002291239124914FF48073259326912791A4
:103BA80010232893299115AA5E4801F041F80028AE
:103BB80040F09A8015AA01215A4801F039F80028E6
:103BC80040F095806023129312AB012200215548E2
:103BD80001F0B8F8002840F08D804FF44063099355
:103BE80001230A9300210B914FF400420C924FF4E9
:103BF80080420D920E930F914FF0004310934FF0B7
:103C08008043119309AA474801F04AF8002874D163
:103C180099220A9200230C930D930E9210931193FC
:103C280009AA01213F4801F03BF8002868D100218A
:103C380001914FF4807302934FF40073039304913E
:103C4800059106910791089101AB0122354801F0D1
:103C58005AF9002857D14FF4806302934FF4006358
:103C6800039301AB042201212E4801F04CF90028EE
:103C78004CD100210291039101AB0222294801F0A5
:103C880042F9002845D101AB08220121254801F05D
:103C98003AF9002840D12AAA0121224800F0AFFFB2
:103CA800E8BB2048FFF7ACFE2EB010BDFEF7E4F9E4
:103CB800F7E6FEF7E1F9FBE6FEF7DEF9FFE6FEF7C9
:103CC800DBF90CE7FEF7D8F927E7FEF7D5F930E777
:103CD800FEF7D2F939E7FEF7CFF942E7FEF7CCF95C
:103CE8004BE7FEF7C9F950E7FEF7C6F962E7FEF7BA
:103CF800C3F967E7FEF7C0F96FE7FEF7BDF987E795
:103D0800FEF7BAF993E7FEF7B7F9A4E7FEF7B4F9B7
:103D1800AFE7FEF7B1F9B6E7FEF7AEF9BBE7FEF796
:103D2800ABF9BEE7300300200074014070477047CC
:103D3800704738B50268936803F00303012B01D07C
:103D4800002038BD0446136813F0010F33D0936880
:103D580003F00D03012B09D0036C43F01003036437
:103D6800436C43F0010343640120EAE7936843F09E
:103D780002039360036803221A60FEF739FD0546C3
:103D880023689B6813F0010F13D0FEF731FD401B29
:103D98000228F5D923689B6813F0010FF0D0236C33
:103DA80043F010032364636C43F001036364012050
:103DB800C7E70020C5E70020C3E7000038B5044680
:103DC8000268936803F00303012B0DD091681A4B26
:103DD80019420FD0236C43F010032364636C43F043
:103DE80001036364012038BD136813F0010FEDD09F
:103DF8000020F8E7936843F001039360FEF7F8FCAE
:103E0800054623681B6813F0010F13D1FEF7F0FC79
:103E1800431B022BF5D923681B6813F0010FF0D15F
:103E2800236C43F010032364636C43F00103636461
:103E38000120D8E70020D6E73F00008008B5406A97
:103E4800036C43F040030364436C43F0040343648E
:103E5800FFF76EFF08BD08B5406AFFF768FF08BDA9
:103E680008B5436A1A6C12F0500F1AD11A6C42F452
:103E780000721A641A68D26812F4406F0DD15A7E23
:103E88005AB91A6C22F480721A641A6C12F4805FA0
:103E980003D11A6C42F001021A641846FFF746FF74
:103EA80008BD9B6B1B6B9847FAE7000030B597B0CD
:103EB80000230193002800F0F7800446036C13F0F8
:103EC800100F52D1036CABB1002023689A6812F02E
:103ED800805F03D09B6813F0005F47D0236C23F00A
:103EE800120343F010032364636C43F0010363641B
:103EF80001203BE04364C364836480F83C30FFF7EF
:103F08009BFC23689B6813F0805F01D00020DCE7EE
:103F18002046FFF70EFF236C13F0100FD5D10028B1
:103F2800D3D1236C23F4885323F0020343F0020314
:103F380023642268936823F040539360226893684F
:103F480043F080539360594B1B68594AA2FB0323E3
:103F58009B0C03EB83035B00019302E0019B013B95
:103F68000193019B002BF9D1AFE70020236C13F0DC
:103F7800100F40F09080002840F08D8023689968E9
:103F880011F0040140F08780226C22F4817242F023
:103F980002022264B3F1A04F54D04FF0A042029223
:103FA8009A6802F00302012A4FD0029B23B19A6853
:103FB80002F00302012A4DD03E4A936823F44033AD
:103FC80065682B439360627E5303656B012D01D0B6
:103FD8004FF480510B43E1680B43A1680B4394F8FD
:103FE800201001293BD0A26A012A02D0E16A0A43C3
:103FF80013432268916811F00C0F0CD1D16821F499
:10400800804121F00201D160217E94F830205200D5
:1040180042EA813213432168CD68274A2A401A436D
:10402800CA602369012B2DD02268136B23F00F037C
:10403800136300236364236C23F0030343F0010339
:1040480023642FE01D4A0292AAE71B6813F0010FB0
:10405800B9D1AAE71B6813F0010FB4D1ACE732B9A4
:10406800626A013A43EA424242F48033BBE7226C77
:1040780022F0220242F020022264626C42F0010225
:104088006264B0E721680B6B23F00F03E269013A21
:1040980013430B63CDE7236C23F0120343F01003A3
:1040A8002364012017B030BD0120FBE76800002021
:1040B80083DE1B430003005007C0F0FF00010050DF
:1040C800F8B504460068806810F0040F40F083805B
:1040D8000E46154694F83C30012B7ED0012384F817
:1040E8003C303F4B9B6813F01F0F05D0002384F82A
:1040F8003C3001273846F8BD2046FFF75FFE0746EB
:10410800002864D1236C23F4706323F0010343F483
:1041180080732364324B9B6813F01F0F17D02268FB
:10412800B2F1A04F13D0236C43F4801323642D4BBA
:104138009A421BD14FF0A043DB6813F0007F15D0E3
:10414800236C23F4405343F4805323640EE0236C20
:1041580023F4801323642368DB6813F0007F05D001
:10416800236C23F4405343F480532364236C13F4E7
:10417800805F29D0636C23F006036364002384F80E
:104188003C30A36B184A9A62A36B184ADA62A36B95
:10419800174A1A6323681C221A602268536843F07E
:1041A800100353602268D36843F00103D360216889
:1041B8002B4632464031A06BFFF774F922689368AA
:1041C80043F00403936095E700236364D6E7002374
:1041D80084F83C308EE702278CE702278AE700BF85
:1041E8000003005000010050693E00085F3E0008CF
:1041F800453E000870B590F83C30012B43D004468A
:104208000D46012380F83C30FFF793FD0646002851
:1042180034D1012323642268936823F08043936098
:10422800012D1FD02268936843F000439360FEF786
:10423800DFFA054623689B68002B19DAFEF7D8FADF
:10424800431B0A2BF6D923689B68002BF2DA236CF0
:1042580023F0120343F010032364002384F83C3056
:1042680001260EE02268936843F080439360D9E703
:10427800236C23F0030343F001032364002384F831
:104288003C30304670BD0226FBE7000030B496B0E3
:104298000022019290F83C20012A00F0A5810346F3
:1042A800012280F83C200068826812F0040F40F078
:1042B80090814A68042A35D8046B02EB4202520006
:1042C8004FF01F0C0CFA02FC24EA0C0C0C6894400A
:1042D8004CEA040404631868826812F00C0F6BD16E
:1042E8000A68092A4FD9846902EB42021E3A4FF044
:1042F800070C0CFA02FC24EA0C048D6805FA02F299
:104308002243826148691C68E268C2F3C102520014
:1043180090400A69013A032A00F28D80DFE802F032
:10432800426A7580092A10D8446B02EB4202520097
:104338001E3A4FF01F0C0CFA02FC24EA0C040D681C
:1043480005FA02F222434263C5E70E2A0DD8846BB0
:1043580002EB420252003C3A1F25954024EA05042C
:104368000D6895402C438463B5E7C46B02EB4202A9
:1043780052005A3A1F25954024EA05040D689540D5
:104388002C43C463A7E7446902EB42024FF0070CD1
:104398000CFA02FC24EA0C048D6805FA02F22243A6
:1043A8004261AFE7256E914A2A400D6840EA85656B
:1043B8002A4342F0004222661868826802F003022B
:1043C800012A68D0CA68012A6BD0D0F8B02001242D
:1043D8000D68AC4022EA0402C0F8B0200A68102A2E
:1043E80000F08680112A00F0A480122A00F0A7802D
:1043F8000020F3E0656E7D4A2A400D6840EA856535
:104408002A4342F000426266D6E7A56E774A2A4000
:104418000D6840EA85652A4342F00042A266CBE770
:10442800E26E724D15400A6840EA8262154345F013
:104438000045E566C0E7226E02F0F8420868B2EB74
:10444800806F03D1226E22F0004222661A68506EF5
:1044580000F0F8400C68B0EB846F03D1506E20F088
:10446800004050661A68906E00F0F8400C68B0EB97
:10447800846F03D1906E20F0004090661A68D06E69
:1044880000F0F8400C68B0EB846F95D1D06E20F046
:104498000040D06690E7026812F0010F92D0002029
:1044A8009CE0D0F8B0200D680124AC402243C0F84D
:1044B800B0200A68092A0DD91D68A86902EB4202D2
:1044C8001B3A0724944020EA04008C689440204357
:1044D800A86183E71D686869013202EB420207247C
:1044E800944020EA04008C6894402043686175E792
:1044F8003F49896811F4000F7FF474AF1868B0F170
:10450800A04F23D04FF0A0410291816801F0030130
:1045180001291ED0029921B18C6804F00304012CF2
:1045280021D0102A24D0112A42D0122A4AD00020A1
:1045380054E02F49896811F0807FDFD055E72C4976
:10454800896811F4800FD9D0002047E029490291E9
:10455800DBE7016811F0010FDCD01A6C42F0200291
:104568001A6401203AE0096811F0010FF5D1D8E783
:10457800B0F1A04FD7D11E498A6842F400028A6080
:104588001D4A1268A1F14E61A1F58421A1F27D4175
:10459800A1FB0212920C02EB82025200019202E08D
:1045A800019A013A0192019A002AF9D1002015E0F6
:1045B800B0F1A04FB9D10E498A6842F080728A6082
:1045C80000200BE00A498A6842F480028A600020D1
:1045D80004E01A6C42F020021A640120002283F8D9
:1045E8003C2016B030BC70470220FAE700F0FF8389
:1045F80000030050000100506800002030B494B05F
:1046080003460268B2F1A04F3DD04FF0A0400090A1
:104618000098002876D093F83CC0BCF1010F73D005
:104628004FF0010C83F83CC0926812F0040F5ED181
:10463800826812F0040F5AD10A68002A32D0334C2B
:10464800A26822F4604293F830C04D6845EA4C3CB9
:1046580042EA0C02A2601C68A26802F00302012A66
:1046680014D0826802F00302012A15D0274CA268F0
:1046780022F4716222F00F020868896801430A4334
:10468800A260002038E022480090C1E7226812F0BA
:10469800010FE6D000202FE0026812F0010FE5D0EC
:1046A800002029E019498A6822F460428A60196862
:1046B8008A6802F00302012A0DD0826802F0030220
:1046C800012A0ED011498A6822F4716222F00F0281
:1046D8008A60002010E00A6812F0010FEDD0002077
:1046E8000AE0026812F0010FECD0002004E01A6C16
:1046F80042F020021A640120002283F83C2014B002
:1047080030BC70470120FAE70220F8E700030050A8
:104718000001005010B40468226822F007028B6878
:10472800134323F01803CA681A43226003680A680F
:104738005A6103684A689A615DF8044B704730B55E
:10474800046801F1010C4FEACC1C54F80C3023F03A
:10475800070E936843EA0E0323F01803D5682B432A
:1047680044F80C300368146803EBC113C3F8944091
:104778000368526803EBC113C3F8982030BD30B406
:1047880004682268D4F8A05322F020024B6913432E
:1047980023F400628B69134323F48062CB691343CB
:1047A80023F0C0620B6A134323F000624B6A134381
:1047B80023F040438A6A43EA820323F000530A6BDA
:1047C8001A4325F48035CB6A1D4322600368C3F879
:1047D800A05330BC70472DE9F04105684B1CDB0144
:1047E800EC5824F07044EC500668F35806EBC114FA
:1047F800D4F8E880D4F8E440D6F8A05323F0200C8D
:10480800536943EA0C0323F4006C936943EA0C03ED
:1048180023F4806CD36943EA0C0323F0C06C136A59
:1048280043EA0C0323F0006C536A43EA0C0323F0B9
:10483800704C936A43EA0C0323F40033176BB7F107
:10484800005F32D023F04003D2F834C04CEA0303AF
:1048580023F48023176D47EA030E2EF0FC7E936C39
:1048680043EA0E0E28F01F07936B03F01F033B4328
:1048780023F00043D76B3B43BCF1000F03D124F472
:104888008074176C3C43576CB7F5606F10D0B7F560
:10489800F05F0DD024F4F0543C43D76C042910D8B1
:1048A800DFE801F00A272D33390043F40033C9E764
:1048B800BCF1400FF1D1EDE725F40035D26A45EAA5
:1048C80042054A1CD20146F802E0026802EBC11216
:1048D800C2F8E830036803EBC113C3F8E440036887
:1048E80003EBC113C3F8D4700368C3F8A053BDE841
:1048F800F08125F48025D26A45EA8205E1E725F4AE
:104908000025D26A45EAC205DBE725F48015D26A9C
:1049180045EA0215D5E725F40015D26A45EA42159D
:10492800CFE70000F0B4076807EBC114D4F8E460DF
:10493800D4F8B850202A33D8022A03D2012A4BD0FF
:1049480000220BE0023A012404FA02F22C4C224223
:1049580033D144F2040422423ED10022FE24944082
:1049680026EA04061C68944044EA060CDC68944075
:1049780044EA0C041E6906FA02FC4CEA040C5C6961
:10498800944044EA0C0C9C69944044EA0C04082EB8
:104998002FD0036803EBC113C3F8E440F0BC7047A1
:1049A800B2F5807F18D004D9B2F5007F05D0002277
:1049B800D4E7402A10D0802A0CD15A6807EBC117D7
:1049C800C7F8C42002689C6802EBC112C2F8C8404C
:1049D8001022C3E70022C1E75A6807EBC117C7F8DE
:1049E800BC2002689C6802EBC112C2F8C0400022D9
:1049F800B4E715F0022FCCD1DB6993401C43C8E71C
:104A080041000040052933D8DFE801F00B131B23D0
:104A18002B030268D2F8843343F00103C2F88433CD
:104A280070470268D2F8843343F00203C2F8843333
:104A380070470268D2F8843343F00403C2F8843321
:104A480070470268D2F8843343F00803C2F884330D
:104A580070470268D2F8843343F01003C2F88433F5
:104A680070470268D2F8843343F02003C2F88433D5
:104A780070470000002862D010B582B004460223B7
:104A880080F8C1300023C0F8C430C0F8C830C0F87E
:104A9800CC30C0F8D030C0F8D430C0F8D8308368F3
:104AA80013F0010F12D00268264B9A4225D02168D4
:104AB8000A6822F44042236903F44043134323F471
:104AC8004053626902F440521A430A602046FEF7D6
:104AD80081FFA36813F0020F08D021680A6822F446
:104AE8004072E36803F4407313430B60012384F8B6
:104AF800C130002384F8C0301CE003F51C439A69D8
:104B080042F000529A619B6903F000530193019BA4
:104B1800CDE7C3EBC30204EB820200219161D161AE
:104B2800116251629162C3EBC30204EB820211630A
:104B38000133DBB2052BECD9002002B010BD0120F7
:104B4800704700BF0074014090F8C030012B32D08C
:104B5800012380F8C030022380F8C130B1F1FF3F53
:104B68001AD00268D2F8CC3343F00203C2F8CC332F
:104B78000268D2F8CC3323F00C030B43C2F8CC33D1
:104B88000268D2F8CC3343F00103C2F8CC330123D6
:104B980080F8C130002070470268D2F8CC3323F087
:104BA8000203C2F8CC330268D2F8CC3343F00103D5
:104BB800C2F8CC33EBE70220704770B504460D46C7
:104BC800FDF716FE06462368D3F8883313F4803FB2
:104BD8000ED1B5F1FF3FF6D0FDF70AFE801BA842C3
:104BE80001D8002DEFD1072384F8C130032005E058
:104BF800012384F8C130002084F8C00070BD10B5CE
:104C0800044690F8C100C0B202280BD0022384F8F1
:104C1800C130052907D02046FFF791FD012384F80C
:104C2800C130002010BD11462046FFF773FDF5E79F
:104C380070B5044690F8C100C0B2022828D00E46CC
:104C4800154694F8C030012B28D0012384F8C030D1
:104C5800022384F8C13005291BD02046FFF7BBFD8D
:104C68002A68C6EBC60304EB83031A626A685A62B1
:104C7800AA689A62EA68DA622A691A6331462046A3
:104C8800FFF7C0FE012384F8C130002084F8C0007B
:104C980070BD11462046FFF772FDE1E70220F7E7F5
:104CA800034690F8C100C0B2022845D093F8C0006E
:104CB80001283FD030B54FF0010E83F8C0E0022044
:104CC80083F8C100106800F4E0545068C0F308008D
:104CD8000443906800F400700443106900F48040B5
:104CE8000443D06800F4004004431448556900EABE
:104CF800054C4CEA040C906900F0007040EA0C0C7A
:104D0800106A00F0804040EA0C0CD06900F00040C6
:104D180040EA0C001A6802EBC111D1F8B840084A01
:104D280022400243C1F8B82083F8C1E0002083F88C
:104D3800C00030BD02207047704700BF0000FF016F
:104D48000020003C844690F8C100C0B2022800F060
:104D5800D9809CF8C000012800F0D08030B4012030
:104D68008CF8C00002208CF8C100052909D0013A4E
:104D7800072A00F2BC80DFE802F02E43BA7ABABAFA
:104D8800BA82013A072A1FD8DFE802F0040F1E147E
:104D98001E1E1E19DCF800201B68D3619CF8C13068
:104DA800DBB2072B24D1012028E0DCF800201B68A7
:104DB8005362F3E7DCF800201B689362EEE7DCF847
:104DC80000201B68D362E9E707238CF8C130002371
:104DD8008CF8C030E2E7DCF800201B6802EBC11257
:104DE800C2F89C309CF8C130DBB2072B00F08880F9
:104DF80001238CF8C13000208CF8C00030BC70470B
:104E0800DCF80020186802EBC112C2F8A4005A6846
:104E180022B3DCF800404A1CD201A05820F44050CC
:104E2800A050DCF80040A0585D682843A0505A689C
:104E3800B2F5005F0AD0B2F5405FD3D1DCF80020AC
:104E48009B6802EBC112C2F8A830CBE7DCF800205F
:104E58009B6802EBC112C2F89C30C3E7DCF8002063
:104E68000131C901535823F440535350BAE7DCF8D1
:104E780000201B6802EBC112C2F8A830B2E7DCF8C8
:104E88000020186802EBC112C2F8AC005A682AB3B5
:104E9800DCF800404A1CD201A05820F44040A05041
:104EA800DCF80040A0585D6840EA8500A0505A68C8
:104EB800B2F5005F0AD0B2F5405F93D1DCF800206C
:104EC8009B6802EBC112C2F8A8308BE7DCF800201F
:104ED8009B6802EBC112C2F89C3083E7DCF8002023
:104EE8000131C901535823F4404353507AE707234B
:104EF8008CF8C13000238CF8C03073E7022070476B
:104F080001207BE7704738B5044690F8C100C0B26D
:104F1800022811D094F8C00001280ED0012584F889
:104F2800C050022084F8C1002046FFF7FBFC84F83B
:104F3800C150002084F8C00038BD0220FCE790F87A
:104F4800C030012B15D010B4012280F8C0200223F4
:104F580080F8C1300468D4F894330B43C4F8943310
:104F680080F8C120002380F8C03018465DF8044B53
:104F780070470220704790F8C030012B13D010B44E
:104F8800012280F8C020022380F8C1300468236819
:104F98000B43236080F8C120002380F8C0301846F6
:104FA8005DF8044B70470220704700000C4AD2F8A5
:104FB800FC3043F08073C2F8FC300A4B0021596082
:104FC8001A6842F001021A60074B03FB00F0074B16
:104FD8001860074B1960074B00221A60704700BF22
:104FE80000ED00E0001000E040420F001404002033
:104FF800100400200C04002082B00A4B5B68019367
:10500800019B02689B1A07EE903AF8EE677A064B06
:1050180093ED000AB8EE400A019B036087EE800A10
:1050280002B07047001000E0140400200A4B5968D1
:10503800094B5B685B1A094AD2ED007AF8EE677A89
:1050480067EE807A07EE103AB8EE477AB4EEE77A60
:10505800F1EE10FAECD47047001000E014040020C0
:1050680010B52DED028B044680ED030ADFED0E7AB4
:1050780060EEA70AB7EE001AC1EE207AC0ED027AF8
:1050880077EE807A9FED098AF0EE480A80EE270ACB
:1050980000F01DF884ED040A84ED008A84ED018A8D
:1050A800BDEC028B10BD00BFD00FC940000000004E
:1050B80080ED000AD0ED017A30EE670A90ED047AAF
:1050C80020EE070A37EE800A80ED010A7047B4EE39
:1050D800E00AF1EE10FA07D4B4EEC10AF1EE10FAC4
:1050E80004DDB0EE410A7047B0EE600A7047F8B5CB
:1050F80004460180002646608D002846FBF740F8EC
:105108000746A0602846FBF73BF8E06000232361D0
:1051180063612A4631463846FBF7EEF82A4631469F
:10512800E068FBF7E9F8E66126626662A662F8BD08
:1051380038B52DED028B474C474B2362474BE36153
:10514800A361474B2364474BE363474B474A1A60C5
:105158009FED478ADFED478A51220021F6EE005A7B
:10516800B0EE485AF0EE484AB0EE484ADFED423A0F
:105178009FED423ADFED422AB0EE682AFFEE001AB0
:10518800B7EE001AF0EE650AB7EE080A04F1580007
:1051980000F0EAFD51220021F6EE005AB0EE485A1E
:1051A800F0EE484AB0EE484AF0EE483A9FED353AFC
:1051B800DFED352AB0EE682AFFEE001AB7EE001AC6
:1051C800F0EE650AB7EE080A04F5987000F0CCFD19
:1051D8009FED2E8AF3EE0E0AB0EE480A04F507702A
:1051E800FFF73EFFF3EE040AB0EE480A04F502703A
:1051F800FFF736FFF3EE040AB0EE480A04F50C7028
:10520800FFF72EFF224D00212846FEF7F3FF214C21
:1052180000212046FEF7EEFF02221F492846FEF72E
:105228004FFF01221D492046FEF74AFF1C4C0F2163
:105238002046FFF784FE4FF4E0212046FFF79BFE4F
:10524800012280214FF09040FEF7D6F8BDEC028B8A
:1052580038BD00BF38040020E17A543FCDCC4C3E25
:105268003333A340CDCCC041980600200000404114
:10527800000000006F12833ACDCCCCBD0000FA4488
:1052880000007A44CDCCCC3F9A99993EACC52737DB
:10529800E0020020900200208C06002088060020F2
:1052A8003003002000000000D0B57F4BD3ED007A1A
:1052B800B8EE670ADFED7D6A20EE260A9FED7C7A5C
:1052C80020EE070A9FED7B6A20EE060A7A4C84EDF1
:1052D800000AD3ED017AF8EE677A67EEA67A67EEF0
:1052E800877A67EE867AC4ED017A744BD3ED007A3B
:1052F800F8EE677A67EEA67A67EE877A9FED707A9E
:1053080077EEC77ADFED6F6A87EEA67A84ED027AC8
:1053180004F50270FFF7CCFE84ED030A94ED010A50
:1053280004F50770FFF7C4FE84ED040A94ED020A41
:1053380004F50C70FFF7BCFE84ED050A624B1B7880
:10534800052B4ED8DFE803F0031526774D485A4B56
:105358001869FCF701FB4CA3D3E90023FCF7C6FD51
:1053680000283ED0594B1978574A117002221A70FA
:1053780037E0514B1869FCF7EFFA45A3D3E900234E
:10538800FCF7D2FD68B3514B19784F4A11700222CD
:105398001A7026E0484B1869FCF7DEFA06460F46F5
:1053A80039A3D3E90023FCF7BFFD30B1474B197887
:1053B800454A117000221A7013E035A3D3E900237F
:1053C80030463946FCF792FD58B1404B19783E4AB1
:1053D800117001221A7004E001233B4A13703B4A02
:1053E8001370354CD4ED036AD4ED047A86EEA77AAF
:1053F80084ED0B7ADFED366A86EEA77A84ED0C7AB7
:1054080017EE900AFCF7A8FA06460F4602460B4626
:1054180021A1D1E90001FCF721FCFCF7A5FD60639F
:1054280032463B461EA1D1E90001FCF717FCFCF708
:105438009BFDA063D0BD274B1B7823B9234B1A785B
:10544800214B1A70CDE71C4B1869FCF785FA064604
:105458000F460FA3D3E90023FCF748FD18B11B4BF7
:1054680001221A70BDE708A3D3E900233046394664
:10547800FCF75AFD18B1154B00221A70B1E7134B0F
:1054880002221A70ADE700BF343333638F823A408B
:10549800CDCCCCDCA3B035409A999919AE473340AE
:1054A8009A999919AE4743408C06002062105040E3
:1054B80000008039F0BC9F41380400208806002095
:1054C800FAE8D33FE492713E6C0000206D000020A2
:1054D800CDCCC0418006002038B52DED048BB14CF1
:1054E800D4ED0C0A94ED0B0A04F1580000F074FC9A
:1054F800D4ED100A94ED050A04F5987000F06CFCE0
:1055080094ED057AD4ED107A87EE279AA64B1868A1
:10551800FCF722FA41EC180B19EE100AFCF71CFAFA
:10552800B0EE481AF0EE681A41EC100BFAF7E8FFF3
:1055380051EC100BFCF718FD00EE100A9B4D28608B
:10554800B7EE001ADFED9A0AFFF7C1FD85ED000AF4
:10555800F7EE007A77EEC07A964BC3ED007A94EDB9
:10556800597A20EE070A94ED237A67EE877A30EEAF
:10557800270A914B83ED000A904B1B78012B4FD0E3
:10558800022B00F0AD8013B1BDEC048B38BD8C4B01
:1055980083ED000A9FED868AB7EE001AF0EE480AFE
:1055A800FFF795FD84ED130AD4ED0B7A854BC3ED17
:1055B800007A94ED0C0A844B83ED000A30EE670AFA
:1055C8007C4BD3ED007A20EE270A804B83ED000A4E
:1055D800B7EE001AF0EE480AFFF779FD84ED140AD9
:1055E800D4ED0D0AC4ED090A94ED0E1A84ED0A1AD9
:1055F800D4ED137A30EE270A754B83ED000AFFF7D6
:1056080066FD84ED060A94ED081AD4ED070AFFF743
:105618005EFD84ED060A84ED110A84ED128AB3E773
:10562800B7EE008AC8EE007A38EE670A644B83ED5D
:10563800000ADFED5F8AB0EE481AF0EE680AFFF75D
:1056480046FD584C84ED130A94ED0B7AC8EE077AA0
:1056580078EE677A5B4BC3ED007A94ED0C7A88EEAE
:10566800070A38EE400A584B83ED000A30EE670A05
:10567800504BD3ED007A20EE270A544B83ED000AF5
:10568800B0EE481AF0EE680AFFF721FD84ED140A1F
:10569800D4ED0D7AC8EE270A78EE600AC4ED090A3F
:1056A80094ED0E7AC8EE077A38EE671A84ED0A1A76
:1056B800D4ED137A30EE270A454B83ED000AFFF745
:1056C80006FD84ED060A94ED081AD4ED070AFFF7E3
:1056D800FEFC84ED060AC4ED118A84ED120A53E734
:1056E800B7EE008A30EE087AC0EE077A344BC3ED85
:1056F800007ADFED2F8AB0EE481AF0EE680AB0EEB5
:10570800670AFFF7E4FC274C84ED130A94ED0B7A43
:1057180077EE086AC7EE267A2A4BC3ED007A94ED35
:105728000C7A77EE086A87EE260A274B83ED000A83
:1057380030EE670A1F4BD3ED007A20EE270A234B81
:1057480083ED000AB0EE481AF0EE680AFFF7BFFCD6
:1057580084ED140AD4ED0D7A37EE887AC7EE870AFD
:10576800C4ED090AD4ED0E7A37EE888A87EE881AD6
:1057780084ED0A1AD4ED137A30EE270A144B83ED20
:10578800000AFFF7A4FC84ED060A94ED081AD4ED8C
:10579800070AFFF79CFC84ED060A84ED110A84EDE4
:1057A800120AF1E6380400207000002034040020BA
:1057B80000000000300400202C0400206D000020B0
:1057C8002804002024040020200400201C040020B9
:1057D80018040020214B1B78B3BB214AD2ED117A63
:1057E800F7EE006A76EEE77A36EEE77AF6EE005ADA
:1057F80027EE257A9FED1B6A27EE067ABCEEC77A5C
:10580800194B83ED077A77EEA67A67EEA57A67EEED
:10581800867AFCEEE77AC3ED097AD2ED127A36EE93
:10582800E77A27EE257A27EE067ABCEEC77A83ED6B
:105838000A7A77EEA67A67EEA57A67EE867AFCEEA4
:10584800E77AC3ED0B7A7047074B4FF43441D961BF
:1058580000225A629962DA62704700BF800600200F
:1058680038040020000034470074014008B5374B65
:10587800D3ED047A9FED367AF4EEC77AF1EE10FA9A
:1058880006DCB3EE007AF4EEC77AF1EE10FA20D512
:10589800304B03221A700022C0214FF09040FDF7D0
:1058A800ABFD2D4B1A682D4B1A602D4B01221A7037
:1058B800264B93ED057ADFED2B7AB4EEE77AF1EE1D
:1058C80010FA02DD264B1B785BB3254B1B787BB3A4
:1058D80008BD9FED1F7AF4EEC77AF1EE10FAE7D80B
:1058E800B3EE007AF4EEC77AF1EE10FAE0DB1A4B69
:1058F8001B681A4A12689B1A07EE903AF8EE677A04
:10590800B0EE047AF4EEC77AF1EE10FAD0DB144B5D
:1059180000221A70012280214FF09040FDF76CFDA3
:10592800C6E70122C0214FF09040FDF765FDCFE7A3
:10593800012280214FF09040FDF75EFD00224021BA
:105948004FF09040FDF758FDC2E700BF3804002033
:10595800000040426D0000209406002084060020CC
:10596800800600205C8F823F08B5FFF77FFF0A485A
:10597800FFF742FB094B83ED000A094BD3ED007A90
:1059880077EE807AC3ED007AFFF78EFCFFF7A4FD6F
:10599800FFF720FF08BD00BF94060020A0060020E6
:1059A8009C06002010B5FCF723FF5F4B18605F4B87
:1059B80001221A705E4B93F83C206FF3451283F86E
:1059C8003C20D2B26FF3041283F83C20002453E049
:1059D80004EB8402564B03EBC203DB7C13F0100F7D
:1059E80049D0514B1A68524B04EB840103EBC10CAC
:1059F80053F83110501ABCF81030C3F30B03984217
:105A08003DD99CF8143013F0100F0CD19CF81400F9
:105A180040F020008CF81400C0B240F010008CF860
:105A28001400CCF80820424B04EB840203EBC202BA
:105A3800117D01F00F013D4A127802EB820203EB5F
:105A4800C2031B7D03F00F03994201D9374B1C7029
:105A5800374B93F83C2042F0200283F83C20D2B226
:105A680042F0100283F83C2004EB840203EBC203EB
:105A78001B6A03B198470134002CA9DD10BD04EB63
:105A880084002B4B03EBC003D868121A5B8AC3F35C
:105A98000B039A420FD204EB8402254B03EBC2039B
:105AA80003F110021B7D6FF345131371DBB243F052
:105AB80010031371DFE704EB84021D4B03EBC203F1
:105AC80003F110021B7D6FF345131371DBB213F062
